{
  "abi": [
    {
      "inputs": [],
      "stateMutability": "nonpayable",
      "type": "constructor"
    },
    {
      "anonymous": false,
      "inputs": [
        {
          "indexed": true,
          "internalType": "address",
          "name": "previousOwner",
          "type": "address"
        },
        {
          "indexed": true,
          "internalType": "address",
          "name": "newOwner",
          "type": "address"
        }
      ],
      "name": "OwnershipTransferred",
      "type": "event"
    },
    {
      "inputs": [
        {
          "internalType": "address",
          "name": "a",
          "type": "address"
        }
      ],
      "name": "addToPort",
      "outputs": [],
      "stateMutability": "nonpayable",
      "type": "function"
    },
    {
      "inputs": [
        {
          "internalType": "address",
          "name": "a",
          "type": "address"
        }
      ],
      "name": "isInPort",
      "outputs": [
        {
          "internalType": "bool",
          "name": "",
          "type": "bool"
        }
      ],
      "stateMutability": "view",
      "type": "function"
    },
    {
      "inputs": [],
      "name": "owner",
      "outputs": [
        {
          "internalType": "address",
          "name": "",
          "type": "address"
        }
      ],
      "stateMutability": "view",
      "type": "function"
    },
    {
      "inputs": [
        {
          "internalType": "address",
          "name": "a",
          "type": "address"
        }
      ],
      "name": "removeFromPort",
      "outputs": [],
      "stateMutability": "nonpayable",
      "type": "function"
    },
    {
      "inputs": [],
      "name": "renounceOwnership",
      "outputs": [],
      "stateMutability": "nonpayable",
      "type": "function"
    },
    {
      "inputs": [
        {
          "internalType": "address",
          "name": "newOwner",
          "type": "address"
        }
      ],
      "name": "transferOwnership",
      "outputs": [],
      "stateMutability": "nonpayable",
      "type": "function"
    }
  ],
  "bytecode": {
    "object": "0x608060405234801561001057600080fd5b5061001a33610097565b600160208190527ff5b49360e7d73302aeb5b9997a48528ec1cee2d14a7db2db2a13b5d103bbcc8c805460ff19908116831790915573f7bbd4736d4400519fb540cd7849d561ef03ca086000527f5a6958cea799531997b03e422d862a1a48304c398acb57e166b1726ac9eefd82805490911690911790556100e7565b600080546001600160a01b038381166001600160a01b0319831681178455604051919092169283917f8be0079c531659141344cd1fd0a4f28419497f9722a3daafe3b4186f6b6457e09190a35050565b6103d1806100f66000396000f3fe608060405234801561001057600080fd5b50600436106100625760003560e01c80631ae4eca714610067578063715018a61461007c5780638da5cb5b14610084578063be9579e0146100a4578063df8b6b95146100e0578063f2fde38b146100f3575b600080fd5b61007a61007536600461036b565b610106565b005b61007a6101a3565b6000546040516001600160a01b0390911681526020015b60405180910390f35b6100d06100b236600461036b565b6001600160a01b031660009081526001602052604090205460ff1690565b604051901515815260200161009b565b61007a6100ee36600461036b565b6101b7565b61007a61010136600461036b565b610248565b61010e6102c1565b6001600160a01b03811660009081526001602052604090205460ff161561017c5760405162461bcd60e51b815260206004820152601c60248201527f4164647265737320616c726561647920696e2074686520706f72742e0000000060448201526064015b60405180910390fd5b6001600160a01b03166000908152600160208190526040909120805460ff19169091179055565b6101ab6102c1565b6101b5600061031b565b565b6101bf6102c1565b6001600160a01b03811660009081526001602052604090205460ff166102275760405162461bcd60e51b815260206004820181905260248201527f4164647265737320616c7265616479206e6f7420696e2074686520706f72742e6044820152606401610173565b6001600160a01b03166000908152600160205260409020805460ff19169055565b6102506102c1565b6001600160a01b0381166102b55760405162461bcd60e51b815260206004820152602660248201527f4f776e61626c653a206e6577206f776e657220697320746865207a65726f206160448201526564647265737360d01b6064820152608401610173565b6102be8161031b565b50565b6000546001600160a01b031633146101b55760405162461bcd60e51b815260206004820181905260248201527f4f776e61626c653a2063616c6c6572206973206e6f7420746865206f776e65726044820152606401610173565b600080546001600160a01b038381166001600160a01b0319831681178455604051919092169283917f8be0079c531659141344cd1fd0a4f28419497f9722a3daafe3b4186f6b6457e09190a35050565b60006020828403121561037d57600080fd5b81356001600160a01b038116811461039457600080fd5b939250505056fea26469706673582212201666bcb9b8baa9120510e768fa5eef469949458ad4885b1bc7db27f9e0f85ef064736f6c63430008130033",
    "linkReferences": {}
  },
  "methodIdentifiers": {
    "addToPort(address)": "1ae4eca7",
    "isInPort(address)": "be9579e0",
    "owner()": "8da5cb5b",
    "removeFromPort(address)": "df8b6b95",
    "renounceOwnership()": "715018a6",
    "transferOwnership(address)": "f2fde38b"
  },
  "id": 4
}