{
  "_format": "hh-sol-artifact-1",
  "contractName": "SBPRT721",
  "sourceName": "contracts/SBPRT721.sol",
  "abi": [
    {
      "inputs": [
        {
          "internalType": "string",
          "name": "name_",
          "type": "string"
        },
        {
          "internalType": "string",
          "name": "tokenName_",
          "type": "string"
        },
        {
          "internalType": "uint256",
          "name": "startDate_",
          "type": "uint256"
        },
        {
          "internalType": "uint256",
          "name": "endDate_",
          "type": "uint256"
        },
        {
          "internalType": "string",
          "name": "contractUri_",
          "type": "string"
        },
        {
          "internalType": "uint256",
          "name": "totalSupply_",
          "type": "uint256"
        }
      ],
      "stateMutability": "nonpayable",
      "type": "constructor"
    },
    {
      "inputs": [],
      "name": "ApprovalCallerNotOwnerNorApproved",
      "type": "error"
    },
    {
      "inputs": [],
      "name": "ApprovalQueryForNonexistentToken",
      "type": "error"
    },
    {
      "inputs": [],
      "name": "BalanceQueryForZeroAddress",
      "type": "error"
    },
    {
      "inputs": [],
      "name": "MintERC2309QuantityExceedsLimit",
      "type": "error"
    },
    {
      "inputs": [],
      "name": "MintToZeroAddress",
      "type": "error"
    },
    {
      "inputs": [],
      "name": "MintZeroQuantity",
      "type": "error"
    },
    {
      "inputs": [],
      "name": "OwnerQueryForNonexistentToken",
      "type": "error"
    },
    {
      "inputs": [],
      "name": "OwnershipNotInitializedForExtraData",
      "type": "error"
    },
    {
      "inputs": [],
      "name": "TransferCallerNotOwnerNorApproved",
      "type": "error"
    },
    {
      "inputs": [],
      "name": "TransferFromIncorrectOwner",
      "type": "error"
    },
    {
      "inputs": [],
      "name": "TransferToNonERC721ReceiverImplementer",
      "type": "error"
    },
    {
      "inputs": [],
      "name": "TransferToZeroAddress",
      "type": "error"
    },
    {
      "inputs": [],
      "name": "URIQueryForNonexistentToken",
      "type": "error"
    },
    {
      "anonymous": false,
      "inputs": [
        {
          "indexed": true,
          "internalType": "address",
          "name": "owner",
          "type": "address"
        },
        {
          "indexed": true,
          "internalType": "address",
          "name": "approved",
          "type": "address"
        },
        {
          "indexed": true,
          "internalType": "uint256",
          "name": "tokenId",
          "type": "uint256"
        }
      ],
      "name": "Approval",
      "type": "event"
    },
    {
      "anonymous": false,
      "inputs": [
        {
          "indexed": true,
          "internalType": "address",
          "name": "owner",
          "type": "address"
        },
        {
          "indexed": true,
          "internalType": "address",
          "name": "operator",
          "type": "address"
        },
        {
          "indexed": false,
          "internalType": "bool",
          "name": "approved",
          "type": "bool"
        }
      ],
      "name": "ApprovalForAll",
      "type": "event"
    },
    {
      "anonymous": false,
      "inputs": [
        {
          "indexed": true,
          "internalType": "uint256",
          "name": "fromTokenId",
          "type": "uint256"
        },
        {
          "indexed": false,
          "internalType": "uint256",
          "name": "toTokenId",
          "type": "uint256"
        },
        {
          "indexed": true,
          "internalType": "address",
          "name": "from",
          "type": "address"
        },
        {
          "indexed": true,
          "internalType": "address",
          "name": "to",
          "type": "address"
        }
      ],
      "name": "ConsecutiveTransfer",
      "type": "event"
    },
    {
      "anonymous": false,
      "inputs": [
        {
          "indexed": true,
          "internalType": "address",
          "name": "previousOwner",
          "type": "address"
        },
        {
          "indexed": true,
          "internalType": "address",
          "name": "newOwner",
          "type": "address"
        }
      ],
      "name": "OwnershipTransferred",
      "type": "event"
    },
    {
      "anonymous": false,
      "inputs": [
        {
          "indexed": true,
          "internalType": "address",
          "name": "a",
          "type": "address"
        }
      ],
      "name": "Paused",
      "type": "event"
    },
    {
      "anonymous": false,
      "inputs": [
        {
          "indexed": true,
          "internalType": "address",
          "name": "from",
          "type": "address"
        },
        {
          "indexed": true,
          "internalType": "address",
          "name": "to",
          "type": "address"
        },
        {
          "indexed": true,
          "internalType": "uint256",
          "name": "tokenId",
          "type": "uint256"
        }
      ],
      "name": "Transfer",
      "type": "event"
    },
    {
      "anonymous": false,
      "inputs": [
        {
          "indexed": true,
          "internalType": "address",
          "name": "a",
          "type": "address"
        }
      ],
      "name": "Unpaused",
      "type": "event"
    },
    {
      "inputs": [],
      "name": "TOKENS",
      "outputs": [
        {
          "internalType": "uint256",
          "name": "",
          "type": "uint256"
        }
      ],
      "stateMutability": "view",
      "type": "function"
    },
    {
      "inputs": [],
      "name": "_endDate",
      "outputs": [
        {
          "internalType": "uint256",
          "name": "",
          "type": "uint256"
        }
      ],
      "stateMutability": "view",
      "type": "function"
    },
    {
      "inputs": [],
      "name": "_name",
      "outputs": [
        {
          "internalType": "string",
          "name": "",
          "type": "string"
        }
      ],
      "stateMutability": "view",
      "type": "function"
    },
    {
      "inputs": [],
      "name": "_payoutAddress",
      "outputs": [
        {
          "internalType": "address",
          "name": "",
          "type": "address"
        }
      ],
      "stateMutability": "view",
      "type": "function"
    },
    {
      "inputs": [],
      "name": "_startDate",
      "outputs": [
        {
          "internalType": "uint256",
          "name": "",
          "type": "uint256"
        }
      ],
      "stateMutability": "view",
      "type": "function"
    },
    {
      "inputs": [],
      "name": "_tokenName",
      "outputs": [
        {
          "internalType": "string",
          "name": "",
          "type": "string"
        }
      ],
      "stateMutability": "view",
      "type": "function"
    },
    {
      "inputs": [
        {
          "internalType": "address",
          "name": "a",
          "type": "address"
        }
      ],
      "name": "addToPort",
      "outputs": [],
      "stateMutability": "nonpayable",
      "type": "function"
    },
    {
      "inputs": [
        {
          "internalType": "address payable",
          "name": "to",
          "type": "address"
        },
        {
          "internalType": "uint256",
          "name": "qty",
          "type": "uint256"
        }
      ],
      "name": "allowListCollect",
      "outputs": [],
      "stateMutability": "payable",
      "type": "function"
    },
    {
      "inputs": [
        {
          "internalType": "address",
          "name": "to",
          "type": "address"
        },
        {
          "internalType": "uint256",
          "name": "tokenId",
          "type": "uint256"
        }
      ],
      "name": "approve",
      "outputs": [],
      "stateMutability": "payable",
      "type": "function"
    },
    {
      "inputs": [
        {
          "internalType": "address",
          "name": "owner",
          "type": "address"
        }
      ],
      "name": "balanceOf",
      "outputs": [
        {
          "internalType": "uint256",
          "name": "",
          "type": "uint256"
        }
      ],
      "stateMutability": "view",
      "type": "function"
    },
    {
      "inputs": [
        {
          "internalType": "bytes",
          "name": "signature",
          "type": "bytes"
        },
        {
          "internalType": "address payable",
          "name": "to",
          "type": "address"
        },
        {
          "internalType": "uint256",
          "name": "qty",
          "type": "uint256"
        }
      ],
      "name": "collect",
      "outputs": [],
      "stateMutability": "payable",
      "type": "function"
    },
    {
      "inputs": [],
      "name": "contractURI",
      "outputs": [
        {
          "internalType": "string",
          "name": "",
          "type": "string"
        }
      ],
      "stateMutability": "view",
      "type": "function"
    },
    {
      "inputs": [],
      "name": "endDate",
      "outputs": [
        {
          "internalType": "uint256",
          "name": "",
          "type": "uint256"
        }
      ],
      "stateMutability": "view",
      "type": "function"
    },
    {
      "inputs": [
        {
          "internalType": "uint256",
          "name": "tokenId",
          "type": "uint256"
        }
      ],
      "name": "getApproved",
      "outputs": [
        {
          "internalType": "address",
          "name": "",
          "type": "address"
        }
      ],
      "stateMutability": "view",
      "type": "function"
    },
    {
      "inputs": [
        {
          "internalType": "uint256",
          "name": "tid",
          "type": "uint256"
        }
      ],
      "name": "getRaribleV2Royalties",
      "outputs": [
        {
          "components": [
            {
              "internalType": "address payable",
              "name": "account",
              "type": "address"
            },
            {
              "internalType": "uint96",
              "name": "value",
              "type": "uint96"
            }
          ],
          "internalType": "struct LibPart.Part[]",
          "name": "",
          "type": "tuple[]"
        }
      ],
      "stateMutability": "view",
      "type": "function"
    },
    {
      "inputs": [
        {
          "internalType": "address",
          "name": "owner",
          "type": "address"
        },
        {
          "internalType": "address",
          "name": "operator",
          "type": "address"
        }
      ],
      "name": "isApprovedForAll",
      "outputs": [
        {
          "internalType": "bool",
          "name": "",
          "type": "bool"
        }
      ],
      "stateMutability": "view",
      "type": "function"
    },
    {
      "inputs": [
        {
          "internalType": "address",
          "name": "a",
          "type": "address"
        }
      ],
      "name": "isInPort",
      "outputs": [
        {
          "internalType": "bool",
          "name": "",
          "type": "bool"
        }
      ],
      "stateMutability": "view",
      "type": "function"
    },
    {
      "inputs": [
        {
          "internalType": "address",
          "name": "to",
          "type": "address"
        },
        {
          "internalType": "uint256",
          "name": "qty",
          "type": "uint256"
        }
      ],
      "name": "mint",
      "outputs": [],
      "stateMutability": "nonpayable",
      "type": "function"
    },
    {
      "inputs": [],
      "name": "name",
      "outputs": [
        {
          "internalType": "string",
          "name": "",
          "type": "string"
        }
      ],
      "stateMutability": "view",
      "type": "function"
    },
    {
      "inputs": [
        {
          "internalType": "address",
          "name": "owner",
          "type": "address"
        }
      ],
      "name": "numberMinted",
      "outputs": [
        {
          "internalType": "uint256",
          "name": "",
          "type": "uint256"
        }
      ],
      "stateMutability": "view",
      "type": "function"
    },
    {
      "inputs": [],
      "name": "openToPublic",
      "outputs": [
        {
          "internalType": "bool",
          "name": "",
          "type": "bool"
        }
      ],
      "stateMutability": "view",
      "type": "function"
    },
    {
      "inputs": [],
      "name": "owner",
      "outputs": [
        {
          "internalType": "address",
          "name": "",
          "type": "address"
        }
      ],
      "stateMutability": "view",
      "type": "function"
    },
    {
      "inputs": [
        {
          "internalType": "uint256",
          "name": "tokenId",
          "type": "uint256"
        }
      ],
      "name": "ownerOf",
      "outputs": [
        {
          "internalType": "address",
          "name": "",
          "type": "address"
        }
      ],
      "stateMutability": "view",
      "type": "function"
    },
    {
      "inputs": [],
      "name": "paused",
      "outputs": [
        {
          "internalType": "bool",
          "name": "",
          "type": "bool"
        }
      ],
      "stateMutability": "view",
      "type": "function"
    },
    {
      "inputs": [
        {
          "internalType": "bytes",
          "name": "signature",
          "type": "bytes"
        },
        {
          "internalType": "address payable",
          "name": "to",
          "type": "address"
        },
        {
          "internalType": "uint256",
          "name": "qty",
          "type": "uint256"
        }
      ],
      "name": "purhase",
      "outputs": [],
      "stateMutability": "payable",
      "type": "function"
    },
    {
      "inputs": [
        {
          "internalType": "address",
          "name": "a",
          "type": "address"
        }
      ],
      "name": "removeFromPort",
      "outputs": [],
      "stateMutability": "nonpayable",
      "type": "function"
    },
    {
      "inputs": [],
      "name": "renounceOwnership",
      "outputs": [],
      "stateMutability": "nonpayable",
      "type": "function"
    },
    {
      "inputs": [],
      "name": "royaltyFeeBps",
      "outputs": [
        {
          "internalType": "uint256",
          "name": "",
          "type": "uint256"
        }
      ],
      "stateMutability": "view",
      "type": "function"
    },
    {
      "inputs": [
        {
          "internalType": "uint256",
          "name": "tid",
          "type": "uint256"
        },
        {
          "internalType": "uint256",
          "name": "salePrice",
          "type": "uint256"
        }
      ],
      "name": "royaltyInfo",
      "outputs": [
        {
          "internalType": "address",
          "name": "",
          "type": "address"
        },
        {
          "internalType": "uint256",
          "name": "",
          "type": "uint256"
        }
      ],
      "stateMutability": "view",
      "type": "function"
    },
    {
      "inputs": [
        {
          "internalType": "address",
          "name": "from",
          "type": "address"
        },
        {
          "internalType": "address",
          "name": "to",
          "type": "address"
        },
        {
          "internalType": "uint256",
          "name": "tokenId",
          "type": "uint256"
        }
      ],
      "name": "safeTransferFrom",
      "outputs": [],
      "stateMutability": "payable",
      "type": "function"
    },
    {
      "inputs": [
        {
          "internalType": "address",
          "name": "from",
          "type": "address"
        },
        {
          "internalType": "address",
          "name": "to",
          "type": "address"
        },
        {
          "internalType": "uint256",
          "name": "tokenId",
          "type": "uint256"
        },
        {
          "internalType": "bytes",
          "name": "_data",
          "type": "bytes"
        }
      ],
      "name": "safeTransferFrom",
      "outputs": [],
      "stateMutability": "payable",
      "type": "function"
    },
    {
      "inputs": [
        {
          "internalType": "address",
          "name": "operator",
          "type": "address"
        },
        {
          "internalType": "bool",
          "name": "approved",
          "type": "bool"
        }
      ],
      "name": "setApprovalForAll",
      "outputs": [],
      "stateMutability": "nonpayable",
      "type": "function"
    },
    {
      "inputs": [
        {
          "internalType": "string",
          "name": "newBaseURI",
          "type": "string"
        }
      ],
      "name": "setBaseTokenURI",
      "outputs": [],
      "stateMutability": "nonpayable",
      "type": "function"
    },
    {
      "inputs": [
        {
          "internalType": "string",
          "name": "newContractURI",
          "type": "string"
        }
      ],
      "name": "setContractURI",
      "outputs": [],
      "stateMutability": "nonpayable",
      "type": "function"
    },
    {
      "inputs": [
        {
          "internalType": "address",
          "name": "payoutAddress",
          "type": "address"
        }
      ],
      "name": "setPayoutAddress",
      "outputs": [],
      "stateMutability": "nonpayable",
      "type": "function"
    },
    {
      "inputs": [
        {
          "internalType": "uint256",
          "name": "newWeiPrice",
          "type": "uint256"
        }
      ],
      "name": "setPrice",
      "outputs": [],
      "stateMutability": "nonpayable",
      "type": "function"
    },
    {
      "inputs": [
        {
          "internalType": "address",
          "name": "newSignerAddress",
          "type": "address"
        }
      ],
      "name": "setSignerAddress",
      "outputs": [],
      "stateMutability": "nonpayable",
      "type": "function"
    },
    {
      "inputs": [
        {
          "internalType": "string",
          "name": "newHash",
          "type": "string"
        }
      ],
      "name": "setTokenHash",
      "outputs": [],
      "stateMutability": "nonpayable",
      "type": "function"
    },
    {
      "inputs": [],
      "name": "startDate",
      "outputs": [
        {
          "internalType": "uint256",
          "name": "",
          "type": "uint256"
        }
      ],
      "stateMutability": "view",
      "type": "function"
    },
    {
      "inputs": [
        {
          "internalType": "bytes4",
          "name": "interfaceId",
          "type": "bytes4"
        }
      ],
      "name": "supportsInterface",
      "outputs": [
        {
          "internalType": "bool",
          "name": "",
          "type": "bool"
        }
      ],
      "stateMutability": "view",
      "type": "function"
    },
    {
      "inputs": [],
      "name": "symbol",
      "outputs": [
        {
          "internalType": "string",
          "name": "",
          "type": "string"
        }
      ],
      "stateMutability": "view",
      "type": "function"
    },
    {
      "inputs": [],
      "name": "toggleOpenToPublic",
      "outputs": [],
      "stateMutability": "nonpayable",
      "type": "function"
    },
    {
      "inputs": [],
      "name": "toggleSaleActive",
      "outputs": [],
      "stateMutability": "nonpayable",
      "type": "function"
    },
    {
      "inputs": [
        {
          "internalType": "uint256",
          "name": "tid",
          "type": "uint256"
        }
      ],
      "name": "tokenURI",
      "outputs": [
        {
          "internalType": "string",
          "name": "",
          "type": "string"
        }
      ],
      "stateMutability": "view",
      "type": "function"
    },
    {
      "inputs": [],
      "name": "totalSupply",
      "outputs": [
        {
          "internalType": "uint256",
          "name": "",
          "type": "uint256"
        }
      ],
      "stateMutability": "view",
      "type": "function"
    },
    {
      "inputs": [
        {
          "internalType": "address",
          "name": "from",
          "type": "address"
        },
        {
          "internalType": "address",
          "name": "to",
          "type": "address"
        },
        {
          "internalType": "uint256",
          "name": "tokenId",
          "type": "uint256"
        }
      ],
      "name": "transferFrom",
      "outputs": [],
      "stateMutability": "payable",
      "type": "function"
    },
    {
      "inputs": [
        {
          "internalType": "address",
          "name": "newOwner",
          "type": "address"
        }
      ],
      "name": "transferOwnership",
      "outputs": [],
      "stateMutability": "nonpayable",
      "type": "function"
    },
    {
      "inputs": [],
      "name": "weiPrice",
      "outputs": [
        {
          "internalType": "uint256",
          "name": "",
          "type": "uint256"
        }
      ],
      "stateMutability": "view",
      "type": "function"
    },
    {
      "inputs": [],
      "name": "withdraw",
      "outputs": [],
      "stateMutability": "nonpayable",
      "type": "function"
    }
  ],
  "bytecode": "0x60806040523480156200001157600080fd5b50604051620058b9380380620058b9833981810160405281019062000037919062000617565b85858160029080519060200190620000519291906200038f565b5080600390805190602001906200006a9291906200038f565b506200007b620002bc60201b60201c565b6000819055505050620000a362000097620002c160201b60201c565b620002c960201b60201c565b60016009600073690a0e1eaf12c8e4734c81cf49d478a2c6473a7373ffffffffffffffffffffffffffffffffffffffff1673ffffffffffffffffffffffffffffffffffffffff16815260200190815260200160002060006101000a81548160ff02191690831515021790555060016009600073f7bbd4736d4400519fb540cd7849d561ef03ca0873ffffffffffffffffffffffffffffffffffffffff1673ffffffffffffffffffffffffffffffffffffffff16815260200190815260200160002060006101000a81548160ff0219169083151502179055506000600a60006101000a81548160ff0219169083151502179055506001600b8190555085600c9080519060200190620001b69291906200038f565b5084600d9080519060200190620001cf9291906200038f565b5060008414620001e05783620001e2565b425b60118190555060008314620001f857826200021a565b7fffffffffffffffffffffffffffffffffffffffffffffffffffffffffffffffff5b60128190555081600f9080519060200190620002389291906200038f565b50806015819055506001601760146101000a81548160ff021916908315150217905550737b41de805578cb93f4d4758cea533e526eefef49601760006101000a81548173ffffffffffffffffffffffffffffffffffffffff021916908373ffffffffffffffffffffffffffffffffffffffff16021790555050505050505062000775565b600090565b600033905090565b6000600860009054906101000a900473ffffffffffffffffffffffffffffffffffffffff16905081600860006101000a81548173ffffffffffffffffffffffffffffffffffffffff021916908373ffffffffffffffffffffffffffffffffffffffff1602179055508173ffffffffffffffffffffffffffffffffffffffff168173ffffffffffffffffffffffffffffffffffffffff167f8be0079c531659141344cd1fd0a4f28419497f9722a3daafe3b4186f6b6457e060405160405180910390a35050565b8280546200039d906200073f565b90600052602060002090601f016020900481019282620003c157600085556200040d565b82601f10620003dc57805160ff19168380011785556200040d565b828001600101855582156200040d579182015b828111156200040c578251825591602001919060010190620003ef565b5b5090506200041c919062000420565b5090565b5b808211156200043b57600081600090555060010162000421565b5090565b6000604051905090565b600080fd5b600080fd5b600080fd5b600080fd5b6000601f19601f8301169050919050565b7f4e487b7100000000000000000000000000000000000000000000000000000000600052604160045260246000fd5b620004a8826200045d565b810181811067ffffffffffffffff82111715620004ca57620004c96200046e565b5b80604052505050565b6000620004df6200043f565b9050620004ed82826200049d565b919050565b600067ffffffffffffffff82111562000510576200050f6200046e565b5b6200051b826200045d565b9050602081019050919050565b60005b83811015620005485780820151818401526020810190506200052b565b8381111562000558576000848401525b50505050565b6000620005756200056f84620004f2565b620004d3565b90508281526020810184848401111562000594576200059362000458565b5b620005a184828562000528565b509392505050565b600082601f830112620005c157620005c062000453565b5b8151620005d38482602086016200055e565b91505092915050565b6000819050919050565b620005f181620005dc565b8114620005fd57600080fd5b50565b6000815190506200061181620005e6565b92915050565b60008060008060008060c0878903121562000637576200063662000449565b5b600087015167ffffffffffffffff8111156200065857620006576200044e565b5b6200066689828a01620005a9565b965050602087015167ffffffffffffffff8111156200068a57620006896200044e565b5b6200069889828a01620005a9565b9550506040620006ab89828a0162000600565b9450506060620006be89828a0162000600565b935050608087015167ffffffffffffffff811115620006e257620006e16200044e565b5b620006f089828a01620005a9565b92505060a06200070389828a0162000600565b9150509295509295509295565b7f4e487b7100000000000000000000000000000000000000000000000000000000600052602260045260246000fd5b600060028204905060018216806200075857607f821691505b602082108114156200076f576200076e62000710565b5b50919050565b61513480620007856000396000f3fe6080604052600436106102ae5760003560e01c8063715018a611610175578063c24a0f8b116100dc578063dc33e68111610095578063e8a3d4851161006f578063e8a3d48514610a2c578063e985e9c514610a57578063f2fde38b14610a94578063f903e3e414610abd576102ae565b8063dc33e6811461099b578063df8b6b95146109d8578063e29b9e9714610a01576102ae565b8063c24a0f8b14610884578063c87b56dd146108af578063cad96cca146108ec578063d28d885214610929578063dae36b3f14610954578063dbfa586314610970576102ae565b80639c60c3751161012e5780639c60c375146107815780639f0c8125146107ac578063a22cb465146107d7578063ac8daba014610800578063b88d4fde1461082b578063be9579e014610847576102ae565b8063715018a6146106975780638da5cb5b146106ae57806391192765146106d957806391b7f5ed14610704578063938e3d7b1461072d57806395d89b4114610756576102ae565b806330176e131161021957806355190461116101d257806355190461146105915780635c975abb146105ad5780635cb910b7146105d85780635cd8e56f146105f45780636352211e1461061d57806370a082311461065a576102ae565b806330176e13146104cc5780633100a535146104f557806333ea51a81461050c5780633ccfd60b1461053557806340c10f191461054c57806342842e0e14610575576102ae565b806318160ddd1161026b57806318160ddd146103c85780631831ccf2146103f35780631ae4eca71461041e5780631d831d5c1461044757806323b872dd146104725780632a55205a1461048e576102ae565b806301ffc9a7146102b3578063046dc166146102f057806306fdde0314610319578063081812fc14610344578063095ea7b3146103815780630b97bc861461039d575b600080fd5b3480156102bf57600080fd5b506102da60048036038101906102d591906138a2565b610ad4565b6040516102e791906138ea565b60405180910390f35b3480156102fc57600080fd5b5061031760048036038101906103129190613963565b610b66565b005b34801561032557600080fd5b5061032e610bb2565b60405161033b9190613a29565b60405180910390f35b34801561035057600080fd5b5061036b60048036038101906103669190613a81565b610c44565b6040516103789190613abd565b60405180910390f35b61039b60048036038101906103969190613ad8565b610cc3565b005b3480156103a957600080fd5b506103b2610e07565b6040516103bf9190613b27565b60405180910390f35b3480156103d457600080fd5b506103dd610e11565b6040516103ea9190613b27565b60405180910390f35b3480156103ff57600080fd5b50610408610e1b565b60405161041591906138ea565b60405180910390f35b34801561042a57600080fd5b5061044560048036038101906104409190613963565b610e2e565b005b34801561045357600080fd5b5061045c610eda565b6040516104699190613b27565b60405180910390f35b61048c60048036038101906104879190613b42565b610ee0565b005b34801561049a57600080fd5b506104b560048036038101906104b09190613b95565b611205565b6040516104c3929190613bd5565b60405180910390f35b3480156104d857600080fd5b506104f360048036038101906104ee9190613c63565b6112a6565b005b34801561050157600080fd5b5061050a611427565b005b34801561051857600080fd5b50610533600480360381019061052e9190613963565b611551565b005b34801561054157600080fd5b5061054a61159d565b005b34801561055857600080fd5b50610573600480360381019061056e9190613ad8565b61171e565b005b61058f600480360381019061058a9190613b42565b6117d3565b005b6105ab60048036038101906105a69190613cee565b6117f3565b005b3480156105b957600080fd5b506105c261194d565b6040516105cf91906138ea565b60405180910390f35b6105f260048036038101906105ed9190613e5e565b611964565b005b34801561060057600080fd5b5061061b60048036038101906106169190613c63565b611bff565b005b34801561062957600080fd5b50610644600480360381019061063f9190613a81565b611d80565b6040516106519190613abd565b60405180910390f35b34801561066657600080fd5b50610681600480360381019061067c9190613963565b611d92565b60405161068e9190613b27565b60405180910390f35b3480156106a357600080fd5b506106ac611e4b565b005b3480156106ba57600080fd5b506106c3611e5f565b6040516106d09190613abd565b60405180910390f35b3480156106e557600080fd5b506106ee611e89565b6040516106fb9190613b27565b60405180910390f35b34801561071057600080fd5b5061072b60048036038101906107269190613a81565b611e8f565b005b34801561073957600080fd5b50610754600480360381019061074f9190613c63565b611f2d565b005b34801561076257600080fd5b5061076b6120ae565b6040516107789190613a29565b60405180910390f35b34801561078d57600080fd5b50610796612140565b6040516107a39190613abd565b60405180910390f35b3480156107b857600080fd5b506107c1612166565b6040516107ce9190613a29565b60405180910390f35b3480156107e357600080fd5b506107fe60048036038101906107f99190613ef9565b6121f4565b005b34801561080c57600080fd5b506108156122ff565b6040516108229190613b27565b60405180910390f35b61084560048036038101906108409190613f39565b612305565b005b34801561085357600080fd5b5061086e60048036038101906108699190613963565b612378565b60405161087b91906138ea565b60405180910390f35b34801561089057600080fd5b506108996123ce565b6040516108a69190613b27565b60405180910390f35b3480156108bb57600080fd5b506108d660048036038101906108d19190613a81565b6123d8565b6040516108e39190613a29565b60405180910390f35b3480156108f857600080fd5b50610913600480360381019061090e9190613a81565b61244d565b60405161092091906140d0565b60405180910390f35b34801561093557600080fd5b5061093e612580565b60405161094b9190613a29565b60405180910390f35b61096e60048036038101906109699190613e5e565b61260e565b005b34801561097c57600080fd5b506109856128a9565b6040516109929190613b27565b60405180910390f35b3480156109a757600080fd5b506109c260048036038101906109bd9190613963565b6128af565b6040516109cf9190613b27565b60405180910390f35b3480156109e457600080fd5b506109ff60048036038101906109fa9190613963565b6128c1565b005b348015610a0d57600080fd5b50610a1661296c565b604051610a239190613b27565b60405180910390f35b348015610a3857600080fd5b50610a41612972565b604051610a4e9190613a29565b60405180910390f35b348015610a6357600080fd5b50610a7e6004803603810190610a7991906140f2565b612a04565b604051610a8b91906138ea565b60405180910390f35b348015610aa057600080fd5b50610abb6004803603810190610ab69190613963565b612a98565b005b348015610ac957600080fd5b50610ad2612b1c565b005b60006301ffc9a760e01b827bffffffffffffffffffffffffffffffffffffffffffffffffffffffff19161480610b2f57506380ac58cd60e01b827bffffffffffffffffffffffffffffffffffffffffffffffffffffffff1916145b80610b5f5750635b5e139f60e01b827bffffffffffffffffffffffffffffffffffffffffffffffffffffffff1916145b9050919050565b610b6e612ba4565b80601760006101000a81548173ffffffffffffffffffffffffffffffffffffffff021916908373ffffffffffffffffffffffffffffffffffffffff16021790555050565b6060600c8054610bc190614161565b80601f0160208091040260200160405190810160405280929190818152602001828054610bed90614161565b8015610c3a5780601f10610c0f57610100808354040283529160200191610c3a565b820191906000526020600020905b815481529060010190602001808311610c1d57829003601f168201915b5050505050905090565b6000610c4f82612c22565b610c85576040517fcf4700e400000000000000000000000000000000000000000000000000000000815260040160405180910390fd5b6006600083815260200190815260200160002060000160009054906101000a900473ffffffffffffffffffffffffffffffffffffffff169050919050565b6000610cce82611d80565b90508073ffffffffffffffffffffffffffffffffffffffff16610cef612c81565b73ffffffffffffffffffffffffffffffffffffffff1614610d5257610d1b81610d16612c81565b612a04565b610d51576040517fcfb3b94200000000000000000000000000000000000000000000000000000000815260040160405180910390fd5b5b826006600084815260200190815260200160002060000160006101000a81548173ffffffffffffffffffffffffffffffffffffffff021916908373ffffffffffffffffffffffffffffffffffffffff160217905550818373ffffffffffffffffffffffffffffffffffffffff168273ffffffffffffffffffffffffffffffffffffffff167f8c5be1e5ebec7d5bd14f71427d1e84f3dd0314c0f7b2291e5b200ac8c7c3b92560405160405180910390a4505050565b6000601154905090565b6000601554905090565b601760149054906101000a900460ff1681565b610e36612ba4565b610e3f81612378565b15610e7f576040517f08c379a0000000000000000000000000000000000000000000000000000000008152600401610e76906141df565b60405180910390fd5b6001600960008373ffffffffffffffffffffffffffffffffffffffff1673ffffffffffffffffffffffffffffffffffffffff16815260200190815260200160002060006101000a81548160ff02191690831515021790555050565b60135481565b6000610eeb82612c89565b90508373ffffffffffffffffffffffffffffffffffffffff168173ffffffffffffffffffffffffffffffffffffffff1614610f52576040517fa114810000000000000000000000000000000000000000000000000000000000815260040160405180910390fd5b600080610f5e84612d57565b91509150610f748187610f6f612c81565b612d7e565b610fc057610f8986610f84612c81565b612a04565b610fbf576040517f59c896be00000000000000000000000000000000000000000000000000000000815260040160405180910390fd5b5b600073ffffffffffffffffffffffffffffffffffffffff168573ffffffffffffffffffffffffffffffffffffffff161415611027576040517fea553b3400000000000000000000000000000000000000000000000000000000815260040160405180910390fd5b6110348686866001612dc2565b801561103f57600082555b600560008773ffffffffffffffffffffffffffffffffffffffff1673ffffffffffffffffffffffffffffffffffffffff168152602001908152602001600020600081546001900391905081905550600560008673ffffffffffffffffffffffffffffffffffffffff1673ffffffffffffffffffffffffffffffffffffffff168152602001908152602001600020600081546001019190508190555061110d856110e9888887612dc8565b7c020000000000000000000000000000000000000000000000000000000017612df0565b600460008681526020019081526020016000208190555060007c020000000000000000000000000000000000000000000000000000000084161415611195576000600185019050600060046000838152602001908152602001600020541415611193576000548114611192578360046000838152602001908152602001600020819055505b5b505b838573ffffffffffffffffffffffffffffffffffffffff168773ffffffffffffffffffffffffffffffffffffffff167fddf252ad1be2c89b69c2b068fc378daa952ba7f163c4a11628f55a4df523b3ef60405160405180910390a46111fd8686866001612e1b565b505050505050565b600080838060001115801561121b575060135481115b61125a576040517f08c379a00000000000000000000000000000000000000000000000000000000081526004016112519061424b565b60405180910390fd5b600061127361126b866103e8612e21565b612710612e37565b9050601660009054906101000a900473ffffffffffffffffffffffffffffffffffffffff16819350935050509250929050565b6112b66112b1612e4d565b612378565b6112f5576040517f08c379a00000000000000000000000000000000000000000000000000000000081526004016112ec906142b7565b60405180910390fd5b600e805461130290614161565b80601f016020809104026020016040519081016040528092919081815260200182805461132e90614161565b801561137b5780601f106113505761010080835404028352916020019161137b565b820191906000526020600020905b81548152906001019060200180831161135e57829003601f168201915b505050505082828080601f016020809104026020016040519081016040528093929190818152602001838380828437600081840152601f19601f820116905080830192505050505050506113cf8282612e55565b1561140f576040517f08c379a000000000000000000000000000000000000000000000000000000000815260040161140690614323565b60405180910390fd5b8383600e9190611420929190613755565b5050505050565b611437611432612e4d565b612378565b611476576040517f08c379a000000000000000000000000000000000000000000000000000000000815260040161146d906142b7565b60405180910390fd5b600a60009054906101000a900460ff1615600a60006101000a81548160ff021916908315150217905550600a60009054906101000a900460ff1615611504576114bd612e4d565b73ffffffffffffffffffffffffffffffffffffffff167f62e78cea01bee320cd4e420270b5ea74000d11b0c9f74754ebdbfc544b05a25860405160405180910390a261154f565b61150c612e4d565b73ffffffffffffffffffffffffffffffffffffffff167f5db9ee0a495bf2e6ff9c91a7834c1ba4fdd244a5e8aa4e537bd38aeae4b073aa60405160405180910390a25b565b611559612ba4565b80601660006101000a81548173ffffffffffffffffffffffffffffffffffffffff021916908373ffffffffffffffffffffffffffffffffffffffff16021790555050565b6115a5611e5f565b73ffffffffffffffffffffffffffffffffffffffff163373ffffffffffffffffffffffffffffffffffffffff16148061162b5750601660009054906101000a900473ffffffffffffffffffffffffffffffffffffffff1673ffffffffffffffffffffffffffffffffffffffff163373ffffffffffffffffffffffffffffffffffffffff16145b61166a576040517f08c379a00000000000000000000000000000000000000000000000000000000081526004016116619061438f565b60405180910390fd5b6000479050600081116116b2576040517f08c379a00000000000000000000000000000000000000000000000000000000081526004016116a9906143fb565b60405180910390fd5b601660009054906101000a900473ffffffffffffffffffffffffffffffffffffffff1673ffffffffffffffffffffffffffffffffffffffff166108fc829081150290604051600060405180830381858888f1935050505015801561171a573d6000803e3d6000fd5b5050565b61172e611729612e4d565b612378565b61176d576040517f08c379a0000000000000000000000000000000000000000000000000000000008152600401611764906142b7565b60405180910390fd5b806013548161177a610e11565b611784919061444a565b116117c4576040517f08c379a00000000000000000000000000000000000000000000000000000000081526004016117bb906144ec565b60405180910390fd5b6117ce8383612e90565b505050565b6117ee83838360405180602001604052806000815250612305565b505050565b600a60009054906101000a900460ff1615611843576040517f08c379a000000000000000000000000000000000000000000000000000000000815260040161183a90614558565b60405180910390fd5b8060135481611850610e11565b61185a919061444a565b1161189a576040517f08c379a0000000000000000000000000000000000000000000000000000000008152600401611891906144ec565b60405180910390fd5b82826001816118a8846128af565b6118b2919061444a565b11156118f3576040517f08c379a00000000000000000000000000000000000000000000000000000000081526004016118ea906145c4565b60405180910390fd5b6118fc82612eae565b1561193c576040517f08c379a000000000000000000000000000000000000000000000000000000000815260040161193390614630565b60405180910390fd5b6119468585612e90565b5050505050565b6000600a60009054906101000a900460ff16905090565b600a60009054906101000a900460ff16156119b4576040517f08c379a00000000000000000000000000000000000000000000000000000000081526004016119ab90614558565b60405180910390fd5b80601354816119c1610e11565b6119cb919061444a565b11611a0b576040517f08c379a0000000000000000000000000000000000000000000000000000000008152600401611a02906144ec565b60405180910390fd5b828234600182611a1a856128af565b611a24919061444a565b1015611a65576040517f08c379a0000000000000000000000000000000000000000000000000000000008152600401611a5c9061469c565b60405180910390fd5b60006014541115611ac15781601454611a7e91906146bc565b811015611ac0576040517f08c379a0000000000000000000000000000000000000000000000000000000008152600401611ab790614762565b60405180910390fd5b5b611aca83612eae565b15611b0a576040517f08c379a0000000000000000000000000000000000000000000000000000000008152600401611b01906147ce565b60405180910390fd5b611b1387612ec7565b611b52576040517f08c379a0000000000000000000000000000000000000000000000000000000008152600401611b499061483a565b60405180910390fd5b601760149054906101000a900460ff16611ba1576040517f08c379a0000000000000000000000000000000000000000000000000000000008152600401611b98906148a6565b60405180910390fd5b6001611bac33611d92565b10611bec576040517f08c379a0000000000000000000000000000000000000000000000000000000008152600401611be390614938565b60405180910390fd5b611bf68686612e90565b50505050505050565b611c0f611c0a612e4d565b612378565b611c4e576040517f08c379a0000000000000000000000000000000000000000000000000000000008152600401611c45906142b7565b60405180910390fd5b60108054611c5b90614161565b80601f0160208091040260200160405190810160405280929190818152602001828054611c8790614161565b8015611cd45780601f10611ca957610100808354040283529160200191611cd4565b820191906000526020600020905b815481529060010190602001808311611cb757829003601f168201915b505050505082828080601f016020809104026020016040519081016040528093929190818152602001838380828437600081840152601f19601f82011690508083019250505050505050611d288282612e55565b15611d68576040517f08c379a0000000000000000000000000000000000000000000000000000000008152600401611d5f90614323565b60405180910390fd5b838360109190611d79929190613755565b5050505050565b6000611d8b82612c89565b9050919050565b60008073ffffffffffffffffffffffffffffffffffffffff168273ffffffffffffffffffffffffffffffffffffffff161415611dfa576040517f8f4eb60400000000000000000000000000000000000000000000000000000000815260040160405180910390fd5b67ffffffffffffffff600560008473ffffffffffffffffffffffffffffffffffffffff1673ffffffffffffffffffffffffffffffffffffffff16815260200190815260200160002054169050919050565b611e53612ba4565b611e5d6000612f66565b565b6000600860009054906101000a900473ffffffffffffffffffffffffffffffffffffffff16905090565b6103e881565b611e9f611e9a612e4d565b612378565b611ede576040517f08c379a0000000000000000000000000000000000000000000000000000000008152600401611ed5906142b7565b60405180910390fd5b806014541415611f23576040517f08c379a0000000000000000000000000000000000000000000000000000000008152600401611f1a906149a4565b60405180910390fd5b8060148190555050565b611f3d611f38612e4d565b612378565b611f7c576040517f08c379a0000000000000000000000000000000000000000000000000000000008152600401611f73906142b7565b60405180910390fd5b600f8054611f8990614161565b80601f0160208091040260200160405190810160405280929190818152602001828054611fb590614161565b80156120025780601f10611fd757610100808354040283529160200191612002565b820191906000526020600020905b815481529060010190602001808311611fe557829003601f168201915b505050505082828080601f016020809104026020016040519081016040528093929190818152602001838380828437600081840152601f19601f820116905080830192505050505050506120568282612e55565b15612096576040517f08c379a000000000000000000000000000000000000000000000000000000000815260040161208d90614323565b60405180910390fd5b8383600f91906120a7929190613755565b5050505050565b6060600380546120bd90614161565b80601f01602080910402602001604051908101604052809291908181526020018280546120e990614161565b80156121365780601f1061210b57610100808354040283529160200191612136565b820191906000526020600020905b81548152906001019060200180831161211957829003601f168201915b5050505050905090565b601660009054906101000a900473ffffffffffffffffffffffffffffffffffffffff1681565b600d805461217390614161565b80601f016020809104026020016040519081016040528092919081815260200182805461219f90614161565b80156121ec5780601f106121c1576101008083540402835291602001916121ec565b820191906000526020600020905b8154815290600101906020018083116121cf57829003601f168201915b505050505081565b8060076000612201612c81565b73ffffffffffffffffffffffffffffffffffffffff1673ffffffffffffffffffffffffffffffffffffffff16815260200190815260200160002060008473ffffffffffffffffffffffffffffffffffffffff1673ffffffffffffffffffffffffffffffffffffffff16815260200190815260200160002060006101000a81548160ff0219169083151502179055508173ffffffffffffffffffffffffffffffffffffffff166122ae612c81565b73ffffffffffffffffffffffffffffffffffffffff167f17307eab39ab6107e8899845ad3d59bd9653f200f220920489ca2b5937696c31836040516122f391906138ea565b60405180910390a35050565b60115481565b612310848484610ee0565b60008373ffffffffffffffffffffffffffffffffffffffff163b146123725761233b8484848461302c565b612371576040517fd1a57ed600000000000000000000000000000000000000000000000000000000815260040160405180910390fd5b5b50505050565b6000600960008373ffffffffffffffffffffffffffffffffffffffff1673ffffffffffffffffffffffffffffffffffffffff16815260200190815260200160002060009054906101000a900460ff169050919050565b6000601254905090565b60606123e382612c22565b612422576040517f08c379a000000000000000000000000000000000000000000000000000000000815260040161241990614a36565b60405180910390fd5b600e6010604051602001612437929190614af5565b6040516020818303038152906040529050919050565b60608180600011158015612462575060135481115b6124a1576040517f08c379a00000000000000000000000000000000000000000000000000000000081526004016124989061424b565b60405180910390fd5b6000600167ffffffffffffffff8111156124be576124bd613d33565b5b6040519080825280602002602001820160405280156124f757816020015b6124e46137db565b8152602001906001900390816124dc5790505b5090506040518060400160405280601660009054906101000a900473ffffffffffffffffffffffffffffffffffffffff1673ffffffffffffffffffffffffffffffffffffffff1681526020016103e86bffffffffffffffffffffffff168152508160008151811061256b5761256a614b19565b5b60200260200101819052508092505050919050565b600c805461258d90614161565b80601f01602080910402602001604051908101604052809291908181526020018280546125b990614161565b80156126065780601f106125db57610100808354040283529160200191612606565b820191906000526020600020905b8154815290600101906020018083116125e957829003601f168201915b505050505081565b600a60009054906101000a900460ff161561265e576040517f08c379a000000000000000000000000000000000000000000000000000000000815260040161265590614558565b60405180910390fd5b806013548161266b610e11565b612675919061444a565b116126b5576040517f08c379a00000000000000000000000000000000000000000000000000000000081526004016126ac906144ec565b60405180910390fd5b8282346001826126c4856128af565b6126ce919061444a565b101561270f576040517f08c379a00000000000000000000000000000000000000000000000000000000081526004016127069061469c565b60405180910390fd5b6000601454111561276b578160145461272891906146bc565b81101561276a576040517f08c379a000000000000000000000000000000000000000000000000000000000815260040161276190614762565b60405180910390fd5b5b61277483612eae565b156127b4576040517f08c379a00000000000000000000000000000000000000000000000000000000081526004016127ab906147ce565b60405180910390fd5b6127bd87612ec7565b6127fc576040517f08c379a00000000000000000000000000000000000000000000000000000000081526004016127f39061483a565b60405180910390fd5b601760149054906101000a900460ff1661284b576040517f08c379a0000000000000000000000000000000000000000000000000000000008152600401612842906148a6565b60405180910390fd5b600161285633611d92565b10612896576040517f08c379a000000000000000000000000000000000000000000000000000000000815260040161288d90614938565b60405180910390fd5b6128a08686612e90565b50505050505050565b60125481565b60006128ba8261318c565b9050919050565b6128c9612ba4565b6128d281612378565b612911576040517f08c379a000000000000000000000000000000000000000000000000000000000815260040161290890614b94565b60405180910390fd5b6000600960008373ffffffffffffffffffffffffffffffffffffffff1673ffffffffffffffffffffffffffffffffffffffff16815260200190815260200160002060006101000a81548160ff02191690831515021790555050565b60145481565b6060600f805461298190614161565b80601f01602080910402602001604051908101604052809291908181526020018280546129ad90614161565b80156129fa5780601f106129cf576101008083540402835291602001916129fa565b820191906000526020600020905b8154815290600101906020018083116129dd57829003601f168201915b5050505050905090565b6000600760008473ffffffffffffffffffffffffffffffffffffffff1673ffffffffffffffffffffffffffffffffffffffff16815260200190815260200160002060008373ffffffffffffffffffffffffffffffffffffffff1673ffffffffffffffffffffffffffffffffffffffff16815260200190815260200160002060009054906101000a900460ff16905092915050565b612aa0612ba4565b600073ffffffffffffffffffffffffffffffffffffffff168173ffffffffffffffffffffffffffffffffffffffff161415612b10576040517f08c379a0000000000000000000000000000000000000000000000000000000008152600401612b0790614c26565b60405180910390fd5b612b1981612f66565b50565b612b2c612b27612e4d565b612378565b612b6b576040517f08c379a0000000000000000000000000000000000000000000000000000000008152600401612b62906142b7565b60405180910390fd5b601760149054906101000a900460ff16612b86576001612b89565b60005b601760146101000a81548160ff021916908315150217905550565b612bac612e4d565b73ffffffffffffffffffffffffffffffffffffffff16612bca611e5f565b73ffffffffffffffffffffffffffffffffffffffff1614612c20576040517f08c379a0000000000000000000000000000000000000000000000000000000008152600401612c1790614c92565b60405180910390fd5b565b600081612c2d6131e3565b11158015612c3c575060005482105b8015612c7a575060007c0100000000000000000000000000000000000000000000000000000000600460008581526020019081526020016000205416145b9050919050565b600033905090565b60008082905080612c986131e3565b11612d2057600054811015612d1f5760006004600083815260200190815260200160002054905060007c010000000000000000000000000000000000000000000000000000000082161415612d1d575b6000811415612d13576004600083600190039350838152602001908152602001600020549050612ce8565b8092505050612d52565b505b5b6040517fdf2d9b4200000000000000000000000000000000000000000000000000000000815260040160405180910390fd5b919050565b60008060006006600085815260200190815260200160002090508092508254915050915091565b600073ffffffffffffffffffffffffffffffffffffffff8316925073ffffffffffffffffffffffffffffffffffffffff821691508382148383141790509392505050565b50505050565b60008060e883901c905060e8612ddf8686846131e8565b62ffffff16901b9150509392505050565b600073ffffffffffffffffffffffffffffffffffffffff83169250814260a01b178317905092915050565b50505050565b60008183612e2f91906146bc565b905092915050565b60008183612e459190614ce1565b905092915050565b600033905090565b60008083905060008390508051825114612e7457600092505050612e8a565b8080519060200120828051906020012014925050505b92915050565b612eaa8282604051806020016040528060008152506131f1565b5050565b600080823b905060008163ffffffff1611915050919050565b60008033604051602001612edb9190614d5a565b604051602081830303815290604052805190602001209050612f0e83612f008361328e565b6132be90919063ffffffff16565b73ffffffffffffffffffffffffffffffffffffffff16601760009054906101000a900473ffffffffffffffffffffffffffffffffffffffff1673ffffffffffffffffffffffffffffffffffffffff1614915050919050565b6000600860009054906101000a900473ffffffffffffffffffffffffffffffffffffffff16905081600860006101000a81548173ffffffffffffffffffffffffffffffffffffffff021916908373ffffffffffffffffffffffffffffffffffffffff1602179055508173ffffffffffffffffffffffffffffffffffffffff168173ffffffffffffffffffffffffffffffffffffffff167f8be0079c531659141344cd1fd0a4f28419497f9722a3daafe3b4186f6b6457e060405160405180910390a35050565b60008373ffffffffffffffffffffffffffffffffffffffff1663150b7a02613052612c81565b8786866040518563ffffffff1660e01b81526004016130749493929190614dca565b602060405180830381600087803b15801561308e57600080fd5b505af19250505080156130bf57506040513d601f19601f820116820180604052508101906130bc9190614e2b565b60015b613139573d80600081146130ef576040519150601f19603f3d011682016040523d82523d6000602084013e6130f4565b606091505b50600081511415613131576040517fd1a57ed600000000000000000000000000000000000000000000000000000000815260040160405180910390fd5b805181602001fd5b63150b7a0260e01b7bffffffffffffffffffffffffffffffffffffffffffffffffffffffff1916817bffffffffffffffffffffffffffffffffffffffffffffffffffffffff191614915050949350505050565b600067ffffffffffffffff6040600560008573ffffffffffffffffffffffffffffffffffffffff1673ffffffffffffffffffffffffffffffffffffffff16815260200190815260200160002054901c169050919050565b600090565b60009392505050565b6131fb83836132e5565b60008373ffffffffffffffffffffffffffffffffffffffff163b1461328957600080549050600083820390505b61323b600086838060010194508661302c565b613271576040517fd1a57ed600000000000000000000000000000000000000000000000000000000815260040160405180910390fd5b81811061322857816000541461328657600080fd5b50505b505050565b6000816040516020016132a19190614ecf565b604051602081830303815290604052805190602001209050919050565b60008060006132cd85856134a2565b915091506132da816134f4565b819250505092915050565b6000805490506000821415613326576040517fb562e8dd00000000000000000000000000000000000000000000000000000000815260040160405180910390fd5b6133336000848385612dc2565b600160406001901b178202600560008573ffffffffffffffffffffffffffffffffffffffff1673ffffffffffffffffffffffffffffffffffffffff168152602001908152602001600020600082825401925050819055506133aa8361339b6000866000612dc8565b6133a485613662565b17612df0565b6004600083815260200190815260200160002081905550600080838301905073ffffffffffffffffffffffffffffffffffffffff85169150828260007fddf252ad1be2c89b69c2b068fc378daa952ba7f163c4a11628f55a4df523b3ef600080a4600183015b81811461344b57808360007fddf252ad1be2c89b69c2b068fc378daa952ba7f163c4a11628f55a4df523b3ef600080a4600181019050613410565b506000821415613487576040517f2e07630000000000000000000000000000000000000000000000000000000000815260040160405180910390fd5b80600081905550505061349d6000848385612e1b565b505050565b6000806041835114156134e45760008060006020860151925060408601519150606086015160001a90506134d887828585613672565b945094505050506134ed565b60006002915091505b9250929050565b6000600481111561350857613507614ef5565b5b81600481111561351b5761351a614ef5565b5b14156135265761365f565b6001600481111561353a57613539614ef5565b5b81600481111561354d5761354c614ef5565b5b141561358e576040517f08c379a000000000000000000000000000000000000000000000000000000000815260040161358590614f70565b60405180910390fd5b600260048111156135a2576135a1614ef5565b5b8160048111156135b5576135b4614ef5565b5b14156135f6576040517f08c379a00000000000000000000000000000000000000000000000000000000081526004016135ed90614fdc565b60405180910390fd5b6003600481111561360a57613609614ef5565b5b81600481111561361d5761361c614ef5565b5b141561365e576040517f08c379a00000000000000000000000000000000000000000000000000000000081526004016136559061506e565b60405180910390fd5b5b50565b60006001821460e11b9050919050565b6000807f7fffffffffffffffffffffffffffffff5d576e7357a4501ddfe92f46681b20a08360001c11156136ad57600060039150915061374c565b6000600187878787604051600081526020016040526040516136d294939291906150b9565b6020604051602081039080840390855afa1580156136f4573d6000803e3d6000fd5b505050602060405103519050600073ffffffffffffffffffffffffffffffffffffffff168173ffffffffffffffffffffffffffffffffffffffff1614156137435760006001925092505061374c565b80600092509250505b94509492505050565b82805461376190614161565b90600052602060002090601f01602090048101928261378357600085556137ca565b82601f1061379c57803560ff19168380011785556137ca565b828001600101855582156137ca579182015b828111156137c95782358255916020019190600101906137ae565b5b5090506137d79190613819565b5090565b6040518060400160405280600073ffffffffffffffffffffffffffffffffffffffff16815260200160006bffffffffffffffffffffffff1681525090565b5b8082111561383257600081600090555060010161381a565b5090565b6000604051905090565b600080fd5b600080fd5b60007fffffffff0000000000000000000000000000000000000000000000000000000082169050919050565b61387f8161384a565b811461388a57600080fd5b50565b60008135905061389c81613876565b92915050565b6000602082840312156138b8576138b7613840565b5b60006138c68482850161388d565b91505092915050565b60008115159050919050565b6138e4816138cf565b82525050565b60006020820190506138ff60008301846138db565b92915050565b600073ffffffffffffffffffffffffffffffffffffffff82169050919050565b600061393082613905565b9050919050565b61394081613925565b811461394b57600080fd5b50565b60008135905061395d81613937565b92915050565b60006020828403121561397957613978613840565b5b60006139878482850161394e565b91505092915050565b600081519050919050565b600082825260208201905092915050565b60005b838110156139ca5780820151818401526020810190506139af565b838111156139d9576000848401525b50505050565b6000601f19601f8301169050919050565b60006139fb82613990565b613a05818561399b565b9350613a158185602086016139ac565b613a1e816139df565b840191505092915050565b60006020820190508181036000830152613a4381846139f0565b905092915050565b6000819050919050565b613a5e81613a4b565b8114613a6957600080fd5b50565b600081359050613a7b81613a55565b92915050565b600060208284031215613a9757613a96613840565b5b6000613aa584828501613a6c565b91505092915050565b613ab781613925565b82525050565b6000602082019050613ad26000830184613aae565b92915050565b60008060408385031215613aef57613aee613840565b5b6000613afd8582860161394e565b9250506020613b0e85828601613a6c565b9150509250929050565b613b2181613a4b565b82525050565b6000602082019050613b3c6000830184613b18565b92915050565b600080600060608486031215613b5b57613b5a613840565b5b6000613b698682870161394e565b9350506020613b7a8682870161394e565b9250506040613b8b86828701613a6c565b9150509250925092565b60008060408385031215613bac57613bab613840565b5b6000613bba85828601613a6c565b9250506020613bcb85828601613a6c565b9150509250929050565b6000604082019050613bea6000830185613aae565b613bf76020830184613b18565b9392505050565b600080fd5b600080fd5b600080fd5b60008083601f840112613c2357613c22613bfe565b5b8235905067ffffffffffffffff811115613c4057613c3f613c03565b5b602083019150836001820283011115613c5c57613c5b613c08565b5b9250929050565b60008060208385031215613c7a57613c79613840565b5b600083013567ffffffffffffffff811115613c9857613c97613845565b5b613ca485828601613c0d565b92509250509250929050565b6000613cbb82613905565b9050919050565b613ccb81613cb0565b8114613cd657600080fd5b50565b600081359050613ce881613cc2565b92915050565b60008060408385031215613d0557613d04613840565b5b6000613d1385828601613cd9565b9250506020613d2485828601613a6c565b9150509250929050565b600080fd5b7f4e487b7100000000000000000000000000000000000000000000000000000000600052604160045260246000fd5b613d6b826139df565b810181811067ffffffffffffffff82111715613d8a57613d89613d33565b5b80604052505050565b6000613d9d613836565b9050613da98282613d62565b919050565b600067ffffffffffffffff821115613dc957613dc8613d33565b5b613dd2826139df565b9050602081019050919050565b82818337600083830152505050565b6000613e01613dfc84613dae565b613d93565b905082815260208101848484011115613e1d57613e1c613d2e565b5b613e28848285613ddf565b509392505050565b600082601f830112613e4557613e44613bfe565b5b8135613e55848260208601613dee565b91505092915050565b600080600060608486031215613e7757613e76613840565b5b600084013567ffffffffffffffff811115613e9557613e94613845565b5b613ea186828701613e30565b9350506020613eb286828701613cd9565b9250506040613ec386828701613a6c565b9150509250925092565b613ed6816138cf565b8114613ee157600080fd5b50565b600081359050613ef381613ecd565b92915050565b60008060408385031215613f1057613f0f613840565b5b6000613f1e8582860161394e565b9250506020613f2f85828601613ee4565b9150509250929050565b60008060008060808587031215613f5357613f52613840565b5b6000613f618782880161394e565b9450506020613f728782880161394e565b9350506040613f8387828801613a6c565b925050606085013567ffffffffffffffff811115613fa457613fa3613845565b5b613fb087828801613e30565b91505092959194509250565b600081519050919050565b600082825260208201905092915050565b6000819050602082019050919050565b613ff181613cb0565b82525050565b60006bffffffffffffffffffffffff82169050919050565b61401881613ff7565b82525050565b6040820160008201516140346000850182613fe8565b506020820151614047602085018261400f565b50505050565b6000614059838361401e565b60408301905092915050565b6000602082019050919050565b600061407d82613fbc565b6140878185613fc7565b935061409283613fd8565b8060005b838110156140c35781516140aa888261404d565b97506140b583614065565b925050600181019050614096565b5085935050505092915050565b600060208201905081810360008301526140ea8184614072565b905092915050565b6000806040838503121561410957614108613840565b5b60006141178582860161394e565b92505060206141288582860161394e565b9150509250929050565b7f4e487b7100000000000000000000000000000000000000000000000000000000600052602260045260246000fd5b6000600282049050600182168061417957607f821691505b6020821081141561418d5761418c614132565b5b50919050565b7f4164647265737320616c726561647920696e2074686520706f72742e00000000600082015250565b60006141c9601c8361399b565b91506141d482614193565b602082019050919050565b600060208201905081810360008301526141f8816141bc565b9050919050565b7f20746964204f4f42000000000000000000000000000000000000000000000000600082015250565b600061423560088361399b565b9150614240826141ff565b602082019050919050565b6000602082019050818103600083015261426481614228565b9050919050565b7f2043616c6c6572206e6f742070617274206f662074686520706f72742e000000600082015250565b60006142a1601d8361399b565b91506142ac8261426b565b602082019050919050565b600060208201905081810360008301526142d081614294565b9050919050565b7f206d75737420626520646966666572656e740000000000000000000000000000600082015250565b600061430d60128361399b565b9150614318826142d7565b602082019050919050565b6000602082019050818103600083015261433c81614300565b9050919050565b7f43616c6c65722063616e6e6f742077697468647261772066756e647300000000600082015250565b6000614379601c8361399b565b915061438482614343565b602082019050919050565b600060208201905081810360008301526143a88161436c565b9050919050565b7f4e6f2062616c616e636520746f207472616e7366657200000000000000000000600082015250565b60006143e560168361399b565b91506143f0826143af565b602082019050919050565b60006020820190508181036000830152614414816143d8565b9050919050565b7f4e487b7100000000000000000000000000000000000000000000000000000000600052601160045260246000fd5b600061445582613a4b565b915061446083613a4b565b9250827fffffffffffffffffffffffffffffffffffffffffffffffffffffffffffffffff038211156144955761449461441b565b5b828201905092915050565b7f206e6f7420656e6f756768206c65667400000000000000000000000000000000600082015250565b60006144d660108361399b565b91506144e1826144a0565b602082019050919050565b60006020820190508181036000830152614505816144c9565b9050919050565b7f5061757361626c653a2073616c65207061757365642e00000000000000000000600082015250565b600061454260168361399b565b915061454d8261450c565b602082019050919050565b6000602082019050818103600083015261457181614535565b9050919050565b7f6d61782031206672656520636c61696d20666f7220796f752000000000000000600082015250565b60006145ae60198361399b565b91506145b982614578565b602082019050919050565b600060208201905081810360008301526145dd816145a1565b9050919050565b7f6e616820706c6179610000000000000000000000000000000000000000000000600082015250565b600061461a60098361399b565b9150614625826145e4565b602082019050919050565b600060208201905081810360008301526146498161460d565b9050919050565b7f20756d6d6d206c657427732074727920616761696e0000000000000000000000600082015250565b600061468660158361399b565b915061469182614650565b602082019050919050565b600060208201905081810360008301526146b581614679565b9050919050565b60006146c782613a4b565b91506146d283613a4b565b9250817fffffffffffffffffffffffffffffffffffffffffffffffffffffffffffffffff048311821515161561470b5761470a61441b565b5b828202905092915050565b7f6e6f7420656e6f75676820657468657200000000000000000000000000000000600082015250565b600061474c60108361399b565b915061475782614716565b602082019050919050565b6000602082019050818103600083015261477b8161473f565b9050919050565b7f206e616820706c61796100000000000000000000000000000000000000000000600082015250565b60006147b8600a8361399b565b91506147c382614782565b602082019050919050565b600060208201905081810360008301526147e7816147ab565b9050919050565b7f41646472657373206e6f74207665726966696564000000000000000000000000600082015250565b600061482460148361399b565b915061482f826147ee565b602082019050919050565b6000602082019050818103600083015261485381614817565b9050919050565b7f2073616c65206973206e6f74207075626c696300000000000000000000000000600082015250565b600061489060138361399b565b915061489b8261485a565b602082019050919050565b600060208201905081810360008301526148bf81614883565b9050919050565b7f596f752063616e206f6e6c79206d696e74206f6e65206672656520636f6c6c6560008201527f637469626c652100000000000000000000000000000000000000000000000000602082015250565b600061492260278361399b565b915061492d826148c6565b604082019050919050565b6000602082019050818103600083015261495181614915565b9050919050565b7f206e65775765695072696365206d75737420626520646966666572656e740000600082015250565b600061498e601e8361399b565b915061499982614958565b602082019050919050565b600060208201905081810360008301526149bd81614981565b9050919050565b7f4552433732314d657461646174613a2055524920717565727920666f72206e6f60008201527f6e6578697374656e7420746f6b656e0000000000000000000000000000000000602082015250565b6000614a20602f8361399b565b9150614a2b826149c4565b604082019050919050565b60006020820190508181036000830152614a4f81614a13565b9050919050565b600081905092915050565b60008190508160005260206000209050919050565b60008154614a8381614161565b614a8d8186614a56565b94506001821660008114614aa85760018114614ab957614aec565b60ff19831686528186019350614aec565b614ac285614a61565b60005b83811015614ae457815481890152600182019150602081019050614ac5565b838801955050505b50505092915050565b6000614b018285614a76565b9150614b0d8284614a76565b91508190509392505050565b7f4e487b7100000000000000000000000000000000000000000000000000000000600052603260045260246000fd5b7f4164647265737320616c7265616479206e6f7420696e2074686520706f72742e600082015250565b6000614b7e60208361399b565b9150614b8982614b48565b602082019050919050565b60006020820190508181036000830152614bad81614b71565b9050919050565b7f4f776e61626c653a206e6577206f776e657220697320746865207a65726f206160008201527f6464726573730000000000000000000000000000000000000000000000000000602082015250565b6000614c1060268361399b565b9150614c1b82614bb4565b604082019050919050565b60006020820190508181036000830152614c3f81614c03565b9050919050565b7f4f776e61626c653a2063616c6c6572206973206e6f7420746865206f776e6572600082015250565b6000614c7c60208361399b565b9150614c8782614c46565b602082019050919050565b60006020820190508181036000830152614cab81614c6f565b9050919050565b7f4e487b7100000000000000000000000000000000000000000000000000000000600052601260045260246000fd5b6000614cec82613a4b565b9150614cf783613a4b565b925082614d0757614d06614cb2565b5b828204905092915050565b60008160601b9050919050565b6000614d2a82614d12565b9050919050565b6000614d3c82614d1f565b9050919050565b614d54614d4f82613925565b614d31565b82525050565b6000614d668284614d43565b60148201915081905092915050565b600081519050919050565b600082825260208201905092915050565b6000614d9c82614d75565b614da68185614d80565b9350614db68185602086016139ac565b614dbf816139df565b840191505092915050565b6000608082019050614ddf6000830187613aae565b614dec6020830186613aae565b614df96040830185613b18565b8181036060830152614e0b8184614d91565b905095945050505050565b600081519050614e2581613876565b92915050565b600060208284031215614e4157614e40613840565b5b6000614e4f84828501614e16565b91505092915050565b7f19457468657265756d205369676e6564204d6573736167653a0a333200000000600082015250565b6000614e8e601c83614a56565b9150614e9982614e58565b601c82019050919050565b6000819050919050565b6000819050919050565b614ec9614ec482614ea4565b614eae565b82525050565b6000614eda82614e81565b9150614ee68284614eb8565b60208201915081905092915050565b7f4e487b7100000000000000000000000000000000000000000000000000000000600052602160045260246000fd5b7f45434453413a20696e76616c6964207369676e61747572650000000000000000600082015250565b6000614f5a60188361399b565b9150614f6582614f24565b602082019050919050565b60006020820190508181036000830152614f8981614f4d565b9050919050565b7f45434453413a20696e76616c6964207369676e6174757265206c656e67746800600082015250565b6000614fc6601f8361399b565b9150614fd182614f90565b602082019050919050565b60006020820190508181036000830152614ff581614fb9565b9050919050565b7f45434453413a20696e76616c6964207369676e6174757265202773272076616c60008201527f7565000000000000000000000000000000000000000000000000000000000000602082015250565b600061505860228361399b565b915061506382614ffc565b604082019050919050565b600060208201905081810360008301526150878161504b565b9050919050565b61509781614ea4565b82525050565b600060ff82169050919050565b6150b38161509d565b82525050565b60006080820190506150ce600083018761508e565b6150db60208301866150aa565b6150e8604083018561508e565b6150f5606083018461508e565b9594505050505056fea264697066735822122039fcad5cea95fb7626a72d46808766aa123c252b00e3867545c8a0c63cae479164736f6c63430008090033",
  "linkReferences": {},
  "deployedLinkReferences": {}
}