{
  "abi": [
    {
      "inputs": [],
      "stateMutability": "nonpayable",
      "type": "constructor"
    },
    {
      "anonymous": false,
      "inputs": [
        {
          "indexed": true,
          "internalType": "address",
          "name": "previousOwner",
          "type": "address"
        },
        {
          "indexed": true,
          "internalType": "address",
          "name": "newOwner",
          "type": "address"
        }
      ],
      "name": "OwnershipTransferred",
      "type": "event"
    },
    {
      "anonymous": false,
      "inputs": [
        {
          "indexed": true,
          "internalType": "address",
          "name": "a",
          "type": "address"
        }
      ],
      "name": "Paused",
      "type": "event"
    },
    {
      "anonymous": false,
      "inputs": [
        {
          "indexed": true,
          "internalType": "address",
          "name": "a",
          "type": "address"
        }
      ],
      "name": "Unpaused",
      "type": "event"
    },
    {
      "inputs": [
        {
          "internalType": "address",
          "name": "a",
          "type": "address"
        }
      ],
      "name": "addToPort",
      "outputs": [],
      "stateMutability": "nonpayable",
      "type": "function"
    },
    {
      "inputs": [
        {
          "internalType": "address",
          "name": "a",
          "type": "address"
        }
      ],
      "name": "isInPort",
      "outputs": [
        {
          "internalType": "bool",
          "name": "",
          "type": "bool"
        }
      ],
      "stateMutability": "view",
      "type": "function"
    },
    {
      "inputs": [],
      "name": "owner",
      "outputs": [
        {
          "internalType": "address",
          "name": "",
          "type": "address"
        }
      ],
      "stateMutability": "view",
      "type": "function"
    },
    {
      "inputs": [],
      "name": "paused",
      "outputs": [
        {
          "internalType": "bool",
          "name": "",
          "type": "bool"
        }
      ],
      "stateMutability": "view",
      "type": "function"
    },
    {
      "inputs": [
        {
          "internalType": "address",
          "name": "a",
          "type": "address"
        }
      ],
      "name": "removeFromPort",
      "outputs": [],
      "stateMutability": "nonpayable",
      "type": "function"
    },
    {
      "inputs": [],
      "name": "renounceOwnership",
      "outputs": [],
      "stateMutability": "nonpayable",
      "type": "function"
    },
    {
      "inputs": [],
      "name": "toggleSaleActive",
      "outputs": [],
      "stateMutability": "nonpayable",
      "type": "function"
    },
    {
      "inputs": [
        {
          "internalType": "address",
          "name": "newOwner",
          "type": "address"
        }
      ],
      "name": "transferOwnership",
      "outputs": [],
      "stateMutability": "nonpayable",
      "type": "function"
    }
  ],
  "bytecode": {
    "object": "0x608060405234801561001057600080fd5b5061001a336100a0565b600160208190527ff5b49360e7d73302aeb5b9997a48528ec1cee2d14a7db2db2a13b5d103bbcc8c805460ff19908116831790915573f7bbd4736d4400519fb540cd7849d561ef03ca086000527f5a6958cea799531997b03e422d862a1a48304c398acb57e166b1726ac9eefd82805482169092179091556002805490911690556100f0565b600080546001600160a01b038381166001600160a01b0319831681178455604051919092169283917f8be0079c531659141344cd1fd0a4f28419497f9722a3daafe3b4186f6b6457e09190a35050565b6104cf806100ff6000396000f3fe608060405234801561001057600080fd5b50600436106100885760003560e01c80638da5cb5b1161005b5780638da5cb5b146100ce578063be9579e0146100e9578063df8b6b9514610115578063f2fde38b1461012857600080fd5b80631ae4eca71461008d5780633100a535146100a25780635c975abb146100aa578063715018a6146100c6575b600080fd5b6100a061009b366004610469565b61013b565b005b6100a06101d8565b60025460ff165b60405190151581526020015b60405180910390f35b6100a06102a3565b6000546040516001600160a01b0390911681526020016100bd565b6100b16100f7366004610469565b6001600160a01b031660009081526001602052604090205460ff1690565b6100a0610123366004610469565b6102b5565b6100a0610136366004610469565b610346565b6101436103bf565b6001600160a01b03811660009081526001602052604090205460ff16156101b15760405162461bcd60e51b815260206004820152601c60248201527f4164647265737320616c726561647920696e2074686520706f72742e0000000060448201526064015b60405180910390fd5b6001600160a01b03166000908152600160208190526040909120805460ff19169091179055565b6101e1336100f7565b61022d5760405162461bcd60e51b815260206004820152601d60248201527f2043616c6c6572206e6f742070617274206f662074686520706f72742e00000060448201526064016101a8565b6002805460ff19811660ff9182161590811790925516156102755760405133907f62e78cea01bee320cd4e420270b5ea74000d11b0c9f74754ebdbfc544b05a25890600090a2565b60405133907f5db9ee0a495bf2e6ff9c91a7834c1ba4fdd244a5e8aa4e537bd38aeae4b073aa90600090a25b565b6102ab6103bf565b6102a16000610419565b6102bd6103bf565b6001600160a01b03811660009081526001602052604090205460ff166103255760405162461bcd60e51b815260206004820181905260248201527f4164647265737320616c7265616479206e6f7420696e2074686520706f72742e60448201526064016101a8565b6001600160a01b03166000908152600160205260409020805460ff19169055565b61034e6103bf565b6001600160a01b0381166103b35760405162461bcd60e51b815260206004820152602660248201527f4f776e61626c653a206e6577206f776e657220697320746865207a65726f206160448201526564647265737360d01b60648201526084016101a8565b6103bc81610419565b50565b6000546001600160a01b031633146102a15760405162461bcd60e51b815260206004820181905260248201527f4f776e61626c653a2063616c6c6572206973206e6f7420746865206f776e657260448201526064016101a8565b600080546001600160a01b038381166001600160a01b0319831681178455604051919092169283917f8be0079c531659141344cd1fd0a4f28419497f9722a3daafe3b4186f6b6457e09190a35050565b60006020828403121561047b57600080fd5b81356001600160a01b038116811461049257600080fd5b939250505056fea2646970667358221220e7210cf70c323d15e57c66102d837ffb9977729b5043141fc7f87b9a9a0acdbf64736f6c63430008130033",
    "linkReferences": {}
  },
  "methodIdentifiers": {
    "addToPort(address)": "1ae4eca7",
    "isInPort(address)": "be9579e0",
    "owner()": "8da5cb5b",
    "paused()": "5c975abb",
    "removeFromPort(address)": "df8b6b95",
    "renounceOwnership()": "715018a6",
    "toggleSaleActive()": "3100a535",
    "transferOwnership(address)": "f2fde38b"
  },
  "id": 3
}