{
  "abi": [
    {
      "inputs": [
        {
          "internalType": "string",
          "name": "name_",
          "type": "string"
        },
        {
          "internalType": "string",
          "name": "tokenName_",
          "type": "string"
        },
        {
          "internalType": "uint256",
          "name": "startDate_",
          "type": "uint256"
        },
        {
          "internalType": "uint256",
          "name": "endDate_",
          "type": "uint256"
        },
        {
          "internalType": "string",
          "name": "contractUri_",
          "type": "string"
        },
        {
          "internalType": "uint256",
          "name": "totalSupply_",
          "type": "uint256"
        }
      ],
      "stateMutability": "nonpayable",
      "type": "constructor"
    },
    {
      "inputs": [],
      "name": "ApprovalCallerNotOwnerNorApproved",
      "type": "error"
    },
    {
      "inputs": [],
      "name": "ApprovalQueryForNonexistentToken",
      "type": "error"
    },
    {
      "inputs": [],
      "name": "BalanceQueryForZeroAddress",
      "type": "error"
    },
    {
      "inputs": [],
      "name": "MintERC2309QuantityExceedsLimit",
      "type": "error"
    },
    {
      "inputs": [],
      "name": "MintToZeroAddress",
      "type": "error"
    },
    {
      "inputs": [],
      "name": "MintZeroQuantity",
      "type": "error"
    },
    {
      "inputs": [],
      "name": "OwnerQueryForNonexistentToken",
      "type": "error"
    },
    {
      "inputs": [],
      "name": "OwnershipNotInitializedForExtraData",
      "type": "error"
    },
    {
      "inputs": [],
      "name": "TransferCallerNotOwnerNorApproved",
      "type": "error"
    },
    {
      "inputs": [],
      "name": "TransferFromIncorrectOwner",
      "type": "error"
    },
    {
      "inputs": [],
      "name": "TransferToNonERC721ReceiverImplementer",
      "type": "error"
    },
    {
      "inputs": [],
      "name": "TransferToZeroAddress",
      "type": "error"
    },
    {
      "inputs": [],
      "name": "URIQueryForNonexistentToken",
      "type": "error"
    },
    {
      "anonymous": false,
      "inputs": [
        {
          "indexed": true,
          "internalType": "address",
          "name": "owner",
          "type": "address"
        },
        {
          "indexed": true,
          "internalType": "address",
          "name": "approved",
          "type": "address"
        },
        {
          "indexed": true,
          "internalType": "uint256",
          "name": "tokenId",
          "type": "uint256"
        }
      ],
      "name": "Approval",
      "type": "event"
    },
    {
      "anonymous": false,
      "inputs": [
        {
          "indexed": true,
          "internalType": "address",
          "name": "owner",
          "type": "address"
        },
        {
          "indexed": true,
          "internalType": "address",
          "name": "operator",
          "type": "address"
        },
        {
          "indexed": false,
          "internalType": "bool",
          "name": "approved",
          "type": "bool"
        }
      ],
      "name": "ApprovalForAll",
      "type": "event"
    },
    {
      "anonymous": false,
      "inputs": [
        {
          "indexed": true,
          "internalType": "uint256",
          "name": "fromTokenId",
          "type": "uint256"
        },
        {
          "indexed": false,
          "internalType": "uint256",
          "name": "toTokenId",
          "type": "uint256"
        },
        {
          "indexed": true,
          "internalType": "address",
          "name": "from",
          "type": "address"
        },
        {
          "indexed": true,
          "internalType": "address",
          "name": "to",
          "type": "address"
        }
      ],
      "name": "ConsecutiveTransfer",
      "type": "event"
    },
    {
      "anonymous": false,
      "inputs": [
        {
          "indexed": true,
          "internalType": "address",
          "name": "previousOwner",
          "type": "address"
        },
        {
          "indexed": true,
          "internalType": "address",
          "name": "newOwner",
          "type": "address"
        }
      ],
      "name": "OwnershipTransferred",
      "type": "event"
    },
    {
      "anonymous": false,
      "inputs": [
        {
          "indexed": true,
          "internalType": "address",
          "name": "a",
          "type": "address"
        }
      ],
      "name": "Paused",
      "type": "event"
    },
    {
      "anonymous": false,
      "inputs": [
        {
          "indexed": true,
          "internalType": "address",
          "name": "from",
          "type": "address"
        },
        {
          "indexed": true,
          "internalType": "address",
          "name": "to",
          "type": "address"
        },
        {
          "indexed": true,
          "internalType": "uint256",
          "name": "tokenId",
          "type": "uint256"
        }
      ],
      "name": "Transfer",
      "type": "event"
    },
    {
      "anonymous": false,
      "inputs": [
        {
          "indexed": true,
          "internalType": "address",
          "name": "a",
          "type": "address"
        }
      ],
      "name": "Unpaused",
      "type": "event"
    },
    {
      "inputs": [],
      "name": "TOKENS",
      "outputs": [
        {
          "internalType": "uint256",
          "name": "",
          "type": "uint256"
        }
      ],
      "stateMutability": "view",
      "type": "function"
    },
    {
      "inputs": [],
      "name": "_endDate",
      "outputs": [
        {
          "internalType": "uint256",
          "name": "",
          "type": "uint256"
        }
      ],
      "stateMutability": "view",
      "type": "function"
    },
    {
      "inputs": [],
      "name": "_name",
      "outputs": [
        {
          "internalType": "string",
          "name": "",
          "type": "string"
        }
      ],
      "stateMutability": "view",
      "type": "function"
    },
    {
      "inputs": [],
      "name": "_payoutAddress",
      "outputs": [
        {
          "internalType": "address",
          "name": "",
          "type": "address"
        }
      ],
      "stateMutability": "view",
      "type": "function"
    },
    {
      "inputs": [],
      "name": "_startDate",
      "outputs": [
        {
          "internalType": "uint256",
          "name": "",
          "type": "uint256"
        }
      ],
      "stateMutability": "view",
      "type": "function"
    },
    {
      "inputs": [],
      "name": "_tokenName",
      "outputs": [
        {
          "internalType": "string",
          "name": "",
          "type": "string"
        }
      ],
      "stateMutability": "view",
      "type": "function"
    },
    {
      "inputs": [
        {
          "internalType": "address",
          "name": "a",
          "type": "address"
        }
      ],
      "name": "addToPort",
      "outputs": [],
      "stateMutability": "nonpayable",
      "type": "function"
    },
    {
      "inputs": [
        {
          "internalType": "address payable",
          "name": "to",
          "type": "address"
        },
        {
          "internalType": "uint256",
          "name": "qty",
          "type": "uint256"
        }
      ],
      "name": "allowListCollect",
      "outputs": [],
      "stateMutability": "payable",
      "type": "function"
    },
    {
      "inputs": [
        {
          "internalType": "address",
          "name": "to",
          "type": "address"
        },
        {
          "internalType": "uint256",
          "name": "tokenId",
          "type": "uint256"
        }
      ],
      "name": "approve",
      "outputs": [],
      "stateMutability": "payable",
      "type": "function"
    },
    {
      "inputs": [
        {
          "internalType": "address",
          "name": "owner",
          "type": "address"
        }
      ],
      "name": "balanceOf",
      "outputs": [
        {
          "internalType": "uint256",
          "name": "",
          "type": "uint256"
        }
      ],
      "stateMutability": "view",
      "type": "function"
    },
    {
      "inputs": [
        {
          "internalType": "bytes",
          "name": "signature",
          "type": "bytes"
        },
        {
          "internalType": "address payable",
          "name": "to",
          "type": "address"
        },
        {
          "internalType": "uint256",
          "name": "qty",
          "type": "uint256"
        }
      ],
      "name": "collect",
      "outputs": [],
      "stateMutability": "payable",
      "type": "function"
    },
    {
      "inputs": [],
      "name": "contractURI",
      "outputs": [
        {
          "internalType": "string",
          "name": "",
          "type": "string"
        }
      ],
      "stateMutability": "view",
      "type": "function"
    },
    {
      "inputs": [],
      "name": "endDate",
      "outputs": [
        {
          "internalType": "uint256",
          "name": "",
          "type": "uint256"
        }
      ],
      "stateMutability": "view",
      "type": "function"
    },
    {
      "inputs": [
        {
          "internalType": "uint256",
          "name": "tokenId",
          "type": "uint256"
        }
      ],
      "name": "getApproved",
      "outputs": [
        {
          "internalType": "address",
          "name": "",
          "type": "address"
        }
      ],
      "stateMutability": "view",
      "type": "function"
    },
    {
      "inputs": [
        {
          "internalType": "uint256",
          "name": "tid",
          "type": "uint256"
        }
      ],
      "name": "getRaribleV2Royalties",
      "outputs": [
        {
          "components": [
            {
              "internalType": "address payable",
              "name": "account",
              "type": "address"
            },
            {
              "internalType": "uint96",
              "name": "value",
              "type": "uint96"
            }
          ],
          "internalType": "struct LibPart.Part[]",
          "name": "",
          "type": "tuple[]"
        }
      ],
      "stateMutability": "view",
      "type": "function"
    },
    {
      "inputs": [
        {
          "internalType": "address",
          "name": "owner",
          "type": "address"
        },
        {
          "internalType": "address",
          "name": "operator",
          "type": "address"
        }
      ],
      "name": "isApprovedForAll",
      "outputs": [
        {
          "internalType": "bool",
          "name": "",
          "type": "bool"
        }
      ],
      "stateMutability": "view",
      "type": "function"
    },
    {
      "inputs": [
        {
          "internalType": "address",
          "name": "a",
          "type": "address"
        }
      ],
      "name": "isInPort",
      "outputs": [
        {
          "internalType": "bool",
          "name": "",
          "type": "bool"
        }
      ],
      "stateMutability": "view",
      "type": "function"
    },
    {
      "inputs": [
        {
          "internalType": "address",
          "name": "to",
          "type": "address"
        },
        {
          "internalType": "uint256",
          "name": "qty",
          "type": "uint256"
        }
      ],
      "name": "mint",
      "outputs": [],
      "stateMutability": "nonpayable",
      "type": "function"
    },
    {
      "inputs": [],
      "name": "name",
      "outputs": [
        {
          "internalType": "string",
          "name": "",
          "type": "string"
        }
      ],
      "stateMutability": "view",
      "type": "function"
    },
    {
      "inputs": [
        {
          "internalType": "address",
          "name": "owner",
          "type": "address"
        }
      ],
      "name": "numberMinted",
      "outputs": [
        {
          "internalType": "uint256",
          "name": "",
          "type": "uint256"
        }
      ],
      "stateMutability": "view",
      "type": "function"
    },
    {
      "inputs": [],
      "name": "openToPublic",
      "outputs": [
        {
          "internalType": "bool",
          "name": "",
          "type": "bool"
        }
      ],
      "stateMutability": "view",
      "type": "function"
    },
    {
      "inputs": [],
      "name": "owner",
      "outputs": [
        {
          "internalType": "address",
          "name": "",
          "type": "address"
        }
      ],
      "stateMutability": "view",
      "type": "function"
    },
    {
      "inputs": [
        {
          "internalType": "uint256",
          "name": "tokenId",
          "type": "uint256"
        }
      ],
      "name": "ownerOf",
      "outputs": [
        {
          "internalType": "address",
          "name": "",
          "type": "address"
        }
      ],
      "stateMutability": "view",
      "type": "function"
    },
    {
      "inputs": [],
      "name": "paused",
      "outputs": [
        {
          "internalType": "bool",
          "name": "",
          "type": "bool"
        }
      ],
      "stateMutability": "view",
      "type": "function"
    },
    {
      "inputs": [
        {
          "internalType": "bytes",
          "name": "signature",
          "type": "bytes"
        },
        {
          "internalType": "address payable",
          "name": "to",
          "type": "address"
        },
        {
          "internalType": "uint256",
          "name": "qty",
          "type": "uint256"
        }
      ],
      "name": "purhase",
      "outputs": [],
      "stateMutability": "payable",
      "type": "function"
    },
    {
      "inputs": [
        {
          "internalType": "address",
          "name": "a",
          "type": "address"
        }
      ],
      "name": "removeFromPort",
      "outputs": [],
      "stateMutability": "nonpayable",
      "type": "function"
    },
    {
      "inputs": [],
      "name": "renounceOwnership",
      "outputs": [],
      "stateMutability": "nonpayable",
      "type": "function"
    },
    {
      "inputs": [],
      "name": "royaltyFeeBps",
      "outputs": [
        {
          "internalType": "uint256",
          "name": "",
          "type": "uint256"
        }
      ],
      "stateMutability": "view",
      "type": "function"
    },
    {
      "inputs": [
        {
          "internalType": "uint256",
          "name": "tid",
          "type": "uint256"
        },
        {
          "internalType": "uint256",
          "name": "salePrice",
          "type": "uint256"
        }
      ],
      "name": "royaltyInfo",
      "outputs": [
        {
          "internalType": "address",
          "name": "",
          "type": "address"
        },
        {
          "internalType": "uint256",
          "name": "",
          "type": "uint256"
        }
      ],
      "stateMutability": "view",
      "type": "function"
    },
    {
      "inputs": [
        {
          "internalType": "address",
          "name": "from",
          "type": "address"
        },
        {
          "internalType": "address",
          "name": "to",
          "type": "address"
        },
        {
          "internalType": "uint256",
          "name": "tokenId",
          "type": "uint256"
        }
      ],
      "name": "safeTransferFrom",
      "outputs": [],
      "stateMutability": "payable",
      "type": "function"
    },
    {
      "inputs": [
        {
          "internalType": "address",
          "name": "from",
          "type": "address"
        },
        {
          "internalType": "address",
          "name": "to",
          "type": "address"
        },
        {
          "internalType": "uint256",
          "name": "tokenId",
          "type": "uint256"
        },
        {
          "internalType": "bytes",
          "name": "_data",
          "type": "bytes"
        }
      ],
      "name": "safeTransferFrom",
      "outputs": [],
      "stateMutability": "payable",
      "type": "function"
    },
    {
      "inputs": [
        {
          "internalType": "address",
          "name": "operator",
          "type": "address"
        },
        {
          "internalType": "bool",
          "name": "approved",
          "type": "bool"
        }
      ],
      "name": "setApprovalForAll",
      "outputs": [],
      "stateMutability": "nonpayable",
      "type": "function"
    },
    {
      "inputs": [
        {
          "internalType": "string",
          "name": "newBaseURI",
          "type": "string"
        }
      ],
      "name": "setBaseTokenURI",
      "outputs": [],
      "stateMutability": "nonpayable",
      "type": "function"
    },
    {
      "inputs": [
        {
          "internalType": "string",
          "name": "newContractURI",
          "type": "string"
        }
      ],
      "name": "setContractURI",
      "outputs": [],
      "stateMutability": "nonpayable",
      "type": "function"
    },
    {
      "inputs": [
        {
          "internalType": "address",
          "name": "payoutAddress",
          "type": "address"
        }
      ],
      "name": "setPayoutAddress",
      "outputs": [],
      "stateMutability": "nonpayable",
      "type": "function"
    },
    {
      "inputs": [
        {
          "internalType": "uint256",
          "name": "newWeiPrice",
          "type": "uint256"
        }
      ],
      "name": "setPrice",
      "outputs": [],
      "stateMutability": "nonpayable",
      "type": "function"
    },
    {
      "inputs": [
        {
          "internalType": "address",
          "name": "newSignerAddress",
          "type": "address"
        }
      ],
      "name": "setSignerAddress",
      "outputs": [],
      "stateMutability": "nonpayable",
      "type": "function"
    },
    {
      "inputs": [
        {
          "internalType": "string",
          "name": "newHash",
          "type": "string"
        }
      ],
      "name": "setTokenHash",
      "outputs": [],
      "stateMutability": "nonpayable",
      "type": "function"
    },
    {
      "inputs": [],
      "name": "startDate",
      "outputs": [
        {
          "internalType": "uint256",
          "name": "",
          "type": "uint256"
        }
      ],
      "stateMutability": "view",
      "type": "function"
    },
    {
      "inputs": [
        {
          "internalType": "bytes4",
          "name": "interfaceId",
          "type": "bytes4"
        }
      ],
      "name": "supportsInterface",
      "outputs": [
        {
          "internalType": "bool",
          "name": "",
          "type": "bool"
        }
      ],
      "stateMutability": "view",
      "type": "function"
    },
    {
      "inputs": [],
      "name": "symbol",
      "outputs": [
        {
          "internalType": "string",
          "name": "",
          "type": "string"
        }
      ],
      "stateMutability": "view",
      "type": "function"
    },
    {
      "inputs": [],
      "name": "toggleOpenToPublic",
      "outputs": [],
      "stateMutability": "nonpayable",
      "type": "function"
    },
    {
      "inputs": [],
      "name": "toggleSaleActive",
      "outputs": [],
      "stateMutability": "nonpayable",
      "type": "function"
    },
    {
      "inputs": [
        {
          "internalType": "uint256",
          "name": "tid",
          "type": "uint256"
        }
      ],
      "name": "tokenURI",
      "outputs": [
        {
          "internalType": "string",
          "name": "",
          "type": "string"
        }
      ],
      "stateMutability": "view",
      "type": "function"
    },
    {
      "inputs": [],
      "name": "totalSupply",
      "outputs": [
        {
          "internalType": "uint256",
          "name": "",
          "type": "uint256"
        }
      ],
      "stateMutability": "view",
      "type": "function"
    },
    {
      "inputs": [
        {
          "internalType": "address",
          "name": "from",
          "type": "address"
        },
        {
          "internalType": "address",
          "name": "to",
          "type": "address"
        },
        {
          "internalType": "uint256",
          "name": "tokenId",
          "type": "uint256"
        }
      ],
      "name": "transferFrom",
      "outputs": [],
      "stateMutability": "payable",
      "type": "function"
    },
    {
      "inputs": [
        {
          "internalType": "address",
          "name": "newOwner",
          "type": "address"
        }
      ],
      "name": "transferOwnership",
      "outputs": [],
      "stateMutability": "nonpayable",
      "type": "function"
    },
    {
      "inputs": [],
      "name": "weiPrice",
      "outputs": [
        {
          "internalType": "uint256",
          "name": "",
          "type": "uint256"
        }
      ],
      "stateMutability": "view",
      "type": "function"
    },
    {
      "inputs": [],
      "name": "withdraw",
      "outputs": [],
      "stateMutability": "nonpayable",
      "type": "function"
    }
  ],
  "bytecode": {
    "object": "0x60806040523480156200001157600080fd5b5060405162002ea938038062002ea9833981016040819052620000349162000289565b85856002620000448382620003c5565b506003620000538282620003c5565b50506000805550620000653362000172565b60096020527fd05403e39d21738e49c2d6fe9e7c7dff586e43bdbe460be1220e0f0c349fe6e48054600160ff19918216811790925573f7bbd4736d4400519fb540cd7849d561ef03ca086000527fe7ced20af6ba3e2ddac32930f975841269e9ecd39b2ef36c0aa9107f1d7e26ac8054821683179055600a80549091169055600b55600c620000f58782620003c5565b50600d620001048682620003c5565b50831562000113578362000115565b425b60115582156200012657826200012a565b6000195b601255600f6200013b8382620003c5565b506015555050601780546001600160a81b03191674017b41de805578cb93f4d4758cea533e526eefef491790555062000491915050565b600880546001600160a01b038381166001600160a01b0319831681179093556040519116919082907f8be0079c531659141344cd1fd0a4f28419497f9722a3daafe3b4186f6b6457e090600090a35050565b634e487b7160e01b600052604160045260246000fd5b600082601f830112620001ec57600080fd5b81516001600160401b0380821115620002095762000209620001c4565b604051601f8301601f19908116603f01168101908282118183101715620002345762000234620001c4565b816040528381526020925086838588010111156200025157600080fd5b600091505b8382101562000275578582018301518183018401529082019062000256565b600093810190920192909252949350505050565b60008060008060008060c08789031215620002a357600080fd5b86516001600160401b0380821115620002bb57600080fd5b620002c98a838b01620001da565b97506020890151915080821115620002e057600080fd5b620002ee8a838b01620001da565b9650604089015195506060890151945060808901519150808211156200031357600080fd5b506200032289828a01620001da565b92505060a087015190509295509295509295565b600181811c908216806200034b57607f821691505b6020821081036200036c57634e487b7160e01b600052602260045260246000fd5b50919050565b601f821115620003c057600081815260208120601f850160051c810160208610156200039b5750805b601f850160051c820191505b81811015620003bc57828155600101620003a7565b5050505b505050565b81516001600160401b03811115620003e157620003e1620001c4565b620003f981620003f2845462000336565b8462000372565b602080601f831160018114620004315760008415620004185750858301515b600019600386901b1c1916600185901b178555620003bc565b600085815260208120601f198616915b82811015620004625788860151825594840194600190910190840162000441565b5085821015620004815787850151600019600388901b60f8161c191681555b5050505050600190811b01905550565b612a0880620004a16000396000f3fe6080604052600436106102ae5760003560e01c8063715018a611610175578063c24a0f8b116100dc578063dc33e68111610095578063e8a3d4851161006f578063e8a3d485146107c7578063e985e9c5146107dc578063f2fde38b146107fc578063f903e3e41461081c57600080fd5b8063dc33e68114610771578063df8b6b9514610791578063e29b9e97146107b157600080fd5b8063c24a0f8b146106e4578063c87b56dd146106f9578063cad96cca14610719578063d28d885214610746578063dae36b3f1461051c578063dbfa58631461075b57600080fd5b80639c60c3751161012e5780639c60c3751461062d5780639f0c81251461064d578063a22cb46514610662578063ac8daba014610682578063b88d4fde14610698578063be9579e0146106ab57600080fd5b8063715018a61461058f5780638da5cb5b146105a457806391192765146105c257806391b7f5ed146105d8578063938e3d7b146105f857806395d89b411461061857600080fd5b806330176e131161021957806355190461116101d257806355190461146104f15780635c975abb146105045780635cb910b71461051c5780635cd8e56f1461052f5780636352211e1461054f57806370a082311461056f57600080fd5b806330176e13146104545780633100a5351461047457806333ea51a8146104895780633ccfd60b146104a957806340c10f19146104be57806342842e0e146104de57600080fd5b806318160ddd1161026b57806318160ddd146103965780631831ccf2146103ab5780631ae4eca7146103cc5780631d831d5c146103ec57806323b872dd146104025780632a55205a1461041557600080fd5b806301ffc9a7146102b3578063046dc166146102e857806306fdde031461030a578063081812fc1461032c578063095ea7b3146103645780630b97bc8614610377575b600080fd5b3480156102bf57600080fd5b506102d36102ce3660046122af565b610831565b60405190151581526020015b60405180910390f35b3480156102f457600080fd5b506103086103033660046122e1565b610883565b005b34801561031657600080fd5b5061031f6108ad565b6040516102df9190612344565b34801561033857600080fd5b5061034c610347366004612357565b61093f565b6040516001600160a01b0390911681526020016102df565b610308610372366004612370565b610983565b34801561038357600080fd5b506011545b6040519081526020016102df565b3480156103a257600080fd5b50601554610388565b3480156103b757600080fd5b506017546102d390600160a01b900460ff1681565b3480156103d857600080fd5b506103086103e73660046122e1565b610a23565b3480156103f857600080fd5b5061038860135481565b61030861041036600461239c565b610abd565b34801561042157600080fd5b506104356104303660046123dd565b610c56565b604080516001600160a01b0390931683526020830191909152016102df565b34801561046057600080fd5b5061030861046f3660046123ff565b610cc7565b34801561048057600080fd5b50610308610deb565b34801561049557600080fd5b506103086104a43660046122e1565b610e86565b3480156104b557600080fd5b50610308610eb0565b3480156104ca57600080fd5b506103086104d9366004612370565b610fa4565b6103086104ec36600461239c565b61100d565b6103086104ff366004612370565b611028565b34801561051057600080fd5b50600a5460ff166102d3565b61030861052a366004612514565b61115a565b34801561053b57600080fd5b5061030861054a3660046123ff565b6113ea565b34801561055b57600080fd5b5061034c61056a366004612357565b611507565b34801561057b57600080fd5b5061038861058a3660046122e1565b611512565b34801561059b57600080fd5b50610308611561565b3480156105b057600080fd5b506008546001600160a01b031661034c565b3480156105ce57600080fd5b506103886103e881565b3480156105e457600080fd5b506103086105f3366004612357565b611573565b34801561060457600080fd5b506103086106133660046123ff565b6115ee565b34801561062457600080fd5b5061031f61170b565b34801561063957600080fd5b5060165461034c906001600160a01b031681565b34801561065957600080fd5b5061031f61171a565b34801561066e57600080fd5b5061030861067d36600461255d565b6117a8565b34801561068e57600080fd5b5061038860115481565b6103086106a636600461259b565b611814565b3480156106b757600080fd5b506102d36106c63660046122e1565b6001600160a01b031660009081526009602052604090205460ff1690565b3480156106f057600080fd5b50601254610388565b34801561070557600080fd5b5061031f610714366004612357565b61185e565b34801561072557600080fd5b50610739610734366004612357565b6118f8565b6040516102df9190612607565b34801561075257600080fd5b5061031f6119bf565b34801561076757600080fd5b5061038860125481565b34801561077d57600080fd5b5061038861078c3660046122e1565b6119cc565b34801561079d57600080fd5b506103086107ac3660046122e1565b6119f7565b3480156107bd57600080fd5b5061038860145481565b3480156107d357600080fd5b5061031f611a75565b3480156107e857600080fd5b506102d36107f736600461266d565b611a84565b34801561080857600080fd5b506103086108173660046122e1565b611ab2565b34801561082857600080fd5b50610308611b2b565b60006301ffc9a760e01b6001600160e01b03198316148061086257506380ac58cd60e01b6001600160e01b03198316145b8061087d5750635b5e139f60e01b6001600160e01b03198316145b92915050565b61088b611b89565b601780546001600160a01b0319166001600160a01b0392909216919091179055565b6060600c80546108bc9061269b565b80601f01602080910402602001604051908101604052809291908181526020018280546108e89061269b565b80156109355780601f1061090a57610100808354040283529160200191610935565b820191906000526020600020905b81548152906001019060200180831161091857829003601f168201915b5050505050905090565b600061094a82611be3565b610967576040516333d1c03960e21b815260040160405180910390fd5b506000908152600660205260409020546001600160a01b031690565b600061098e82611507565b9050336001600160a01b038216146109c7576109aa8133611a84565b6109c7576040516367d9dca160e11b815260040160405180910390fd5b60008281526006602052604080822080546001600160a01b0319166001600160a01b0387811691821790925591518593918516917f8c5be1e5ebec7d5bd14f71427d1e84f3dd0314c0f7b2291e5b200ac8c7c3b92591a4505050565b610a2b611b89565b6001600160a01b03811660009081526009602052604090205460ff1615610a995760405162461bcd60e51b815260206004820152601c60248201527f4164647265737320616c726561647920696e2074686520706f72742e0000000060448201526064015b60405180910390fd5b6001600160a01b03166000908152600960205260409020805460ff19166001179055565b6000610ac882611c0a565b9050836001600160a01b0316816001600160a01b031614610afb5760405162a1148160e81b815260040160405180910390fd5b60008281526006602052604090208054338082146001600160a01b03881690911417610b4857610b2b8633611a84565b610b4857604051632ce44b5f60e11b815260040160405180910390fd5b6001600160a01b038516610b6f57604051633a954ecd60e21b815260040160405180910390fd5b8015610b7a57600082555b6001600160a01b038681166000908152600560205260408082208054600019019055918716808252919020805460010190554260a01b17600160e11b17600085815260046020526040812091909155600160e11b84169003610c0c57600184016000818152600460205260408120549003610c0a576000548114610c0a5760008181526004602052604090208490555b505b83856001600160a01b0316876001600160a01b03167fddf252ad1be2c89b69c2b068fc378daa952ba7f163c4a11628f55a4df523b3ef60405160405180910390a45b505050505050565b600080836013548111610c965760405162461bcd60e51b8152602060048201526008602482015267103a34b21027a7a160c11b6044820152606401610a90565b6000610caf610ca7866103e8611c78565b612710611c84565b6016546001600160a01b031697909650945050505050565b610cd0336106c6565b610cec5760405162461bcd60e51b8152600401610a90906126cf565b600e8054610cf99061269b565b80601f0160208091040260200160405190810160405280929190818152602001828054610d259061269b565b8015610d725780601f10610d4757610100808354040283529160200191610d72565b820191906000526020600020905b815481529060010190602001808311610d5557829003601f168201915b505050505082828080601f016020809104026020016040519081016040528093929190818152602001838380828437600092019190915250610dba9250849150839050611c90565b15610dd75760405162461bcd60e51b8152600401610a9090612706565b600e610de4848683612778565b5050505050565b610df4336106c6565b610e105760405162461bcd60e51b8152600401610a90906126cf565b600a805460ff19811660ff918216159081179092551615610e585760405133907f62e78cea01bee320cd4e420270b5ea74000d11b0c9f74754ebdbfc544b05a25890600090a2565b60405133907f5db9ee0a495bf2e6ff9c91a7834c1ba4fdd244a5e8aa4e537bd38aeae4b073aa90600090a25b565b610e8e611b89565b601680546001600160a01b0319166001600160a01b0392909216919091179055565b6008546001600160a01b0316331480610ed357506016546001600160a01b031633145b610f1f5760405162461bcd60e51b815260206004820152601c60248201527f43616c6c65722063616e6e6f742077697468647261772066756e6473000000006044820152606401610a90565b4780610f665760405162461bcd60e51b81526020600482015260166024820152752737903130b630b731b2903a37903a3930b739b332b960511b6044820152606401610a90565b6016546040516001600160a01b039091169082156108fc029083906000818181858888f19350505050158015610fa0573d6000803e3d6000fd5b5050565b610fad336106c6565b610fc95760405162461bcd60e51b8152600401610a90906126cf565b8060135481610fd760155490565b610fe1919061284e565b11610ffe5760405162461bcd60e51b8152600401610a9090612861565b6110088383611cc5565b505050565b61100883838360405180602001604052806000815250611814565b600a5460ff16156110745760405162461bcd60e51b81526020600482015260166024820152752830bab9b0b136329d1039b0b632903830bab9b2b21760511b6044820152606401610a90565b806013548161108260155490565b61108c919061284e565b116110a95760405162461bcd60e51b8152600401610a9090612861565b82826001816110b7846119cc565b6110c1919061284e565b111561110f5760405162461bcd60e51b815260206004820152601960248201527f6d61782031206672656520636c61696d20666f7220796f7520000000000000006044820152606401610a90565b813b63ffffffff16156111505760405162461bcd60e51b81526020600482015260096024820152686e616820706c61796160b81b6044820152606401610a90565b610de48585611cc5565b600a5460ff16156111a65760405162461bcd60e51b81526020600482015260166024820152752830bab9b0b136329d1039b0b632903830bab9b2b21760511b6044820152606401610a90565b80601354816111b460155490565b6111be919061284e565b116111db5760405162461bcd60e51b8152600401610a9090612861565b8282346001826111ea856119cc565b6111f4919061284e565b101561123a5760405162461bcd60e51b8152602060048201526015602482015274103ab6b6b6903632ba13b9903a393c9030b3b0b4b760591b6044820152606401610a90565b601454156112925781601454611250919061288b565b8110156112925760405162461bcd60e51b815260206004820152601060248201526f3737ba1032b737bab3b41032ba3432b960811b6044820152606401610a90565b823b63ffffffff16156112d45760405162461bcd60e51b815260206004820152600a602482015269206e616820706c61796160b01b6044820152606401610a90565b6112dd87611cdf565b6113205760405162461bcd60e51b81526020600482015260146024820152731059191c995cdcc81b9bdd081d995c9a599a595960621b6044820152606401610a90565b601754600160a01b900460ff1661136f5760405162461bcd60e51b81526020600482015260136024820152722073616c65206973206e6f74207075626c696360681b6044820152606401610a90565b600161137a33611512565b106113d75760405162461bcd60e51b815260206004820152602760248201527f596f752063616e206f6e6c79206d696e74206f6e65206672656520636f6c6c65604482015266637469626c652160c81b6064820152608401610a90565b6113e18686611cc5565b50505050505050565b6113f3336106c6565b61140f5760405162461bcd60e51b8152600401610a90906126cf565b6010805461141c9061269b565b80601f01602080910402602001604051908101604052809291908181526020018280546114489061269b565b80156114955780601f1061146a57610100808354040283529160200191611495565b820191906000526020600020905b81548152906001019060200180831161147857829003601f168201915b505050505082828080601f0160208091040260200160405190810160405280939291908181526020018383808284376000920191909152506114dd9250849150839050611c90565b156114fa5760405162461bcd60e51b8152600401610a9090612706565b6010610de4848683612778565b600061087d82611c0a565b60006001600160a01b03821661153b576040516323d3ad8160e21b815260040160405180910390fd5b506001600160a01b031660009081526005602052604090205467ffffffffffffffff1690565b611569611b89565b610e846000611d80565b61157c336106c6565b6115985760405162461bcd60e51b8152600401610a90906126cf565b80601454036115e95760405162461bcd60e51b815260206004820152601e60248201527f206e65775765695072696365206d75737420626520646966666572656e7400006044820152606401610a90565b601455565b6115f7336106c6565b6116135760405162461bcd60e51b8152600401610a90906126cf565b600f80546116209061269b565b80601f016020809104026020016040519081016040528092919081815260200182805461164c9061269b565b80156116995780601f1061166e57610100808354040283529160200191611699565b820191906000526020600020905b81548152906001019060200180831161167c57829003601f168201915b505050505082828080601f0160208091040260200160405190810160405280939291908181526020018383808284376000920191909152506116e19250849150839050611c90565b156116fe5760405162461bcd60e51b8152600401610a9090612706565b600f610de4848683612778565b6060600380546108bc9061269b565b600d80546117279061269b565b80601f01602080910402602001604051908101604052809291908181526020018280546117539061269b565b80156117a05780601f10611775576101008083540402835291602001916117a0565b820191906000526020600020905b81548152906001019060200180831161178357829003601f168201915b505050505081565b3360008181526007602090815260408083206001600160a01b03871680855290835292819020805460ff191686151590811790915590519081529192917f17307eab39ab6107e8899845ad3d59bd9653f200f220920489ca2b5937696c31910160405180910390a35050565b61181f848484610abd565b6001600160a01b0383163b156118585761183b84848484611dd2565b611858576040516368d2bf6b60e11b815260040160405180910390fd5b50505050565b606061186982611be3565b6118cd5760405162461bcd60e51b815260206004820152602f60248201527f4552433732314d657461646174613a2055524920717565727920666f72206e6f60448201526e3732bc34b9ba32b73a103a37b5b2b760891b6064820152608401610a90565b600e60106040516020016118e2929190612915565b6040516020818303038152906040529050919050565b60608160135481116119375760405162461bcd60e51b8152602060048201526008602482015267103a34b21027a7a160c11b6044820152606401610a90565b604080516001808252818301909252600091816020015b604080518082019091526000808252602082015281526020019060019003908161194e575050604080518082019091526016546001600160a01b031681526103e8602082015281519192509082906000906119ab576119ab61292a565b602090810291909101015291505b50919050565b600c80546117279061269b565b6001600160a01b0381166000908152600560205260408082205467ffffffffffffffff911c1661087d565b6119ff611b89565b611a08816106c6565b611a545760405162461bcd60e51b815260206004820181905260248201527f4164647265737320616c7265616479206e6f7420696e2074686520706f72742e6044820152606401610a90565b6001600160a01b03166000908152600960205260409020805460ff19169055565b6060600f80546108bc9061269b565b6001600160a01b03918216600090815260076020908152604080832093909416825291909152205460ff1690565b611aba611b89565b6001600160a01b038116611b1f5760405162461bcd60e51b815260206004820152602660248201527f4f776e61626c653a206e6577206f776e657220697320746865207a65726f206160448201526564647265737360d01b6064820152608401610a90565b611b2881611d80565b50565b611b34336106c6565b611b505760405162461bcd60e51b8152600401610a90906126cf565b601754600160a01b900460ff16611b68576001611b6b565b60005b60178054911515600160a01b0260ff60a01b19909216919091179055565b6008546001600160a01b03163314610e845760405162461bcd60e51b815260206004820181905260248201527f4f776e61626c653a2063616c6c6572206973206e6f7420746865206f776e65726044820152606401610a90565b600080548210801561087d575050600090815260046020526040902054600160e01b161590565b600081600054811015611c5f5760008181526004602052604081205490600160e01b82169003611c5d575b80600003611c56575060001901600081815260046020526040902054611c35565b9392505050565b505b604051636f96cda160e11b815260040160405180910390fd5b6000611c56828461288b565b6000611c568284612940565b805182516000918491849114611cab5760009250505061087d565b80805190602001208280519060200120149250505061087d565b610fa0828260405180602001604052806000815250611ebe565b604080513360601b6bffffffffffffffffffffffff1916602080830191909152825160148184030181526034830184528051908201207f19457468657265756d205369676e6564204d6573736167653a0a33320000000060548401526070808401829052845180850390910181526090909301909352815191012060009190611d689084611f24565b6017546001600160a01b039081169116149392505050565b600880546001600160a01b038381166001600160a01b0319831681179093556040519116919082907f8be0079c531659141344cd1fd0a4f28419497f9722a3daafe3b4186f6b6457e090600090a35050565b604051630a85bd0160e11b81526000906001600160a01b0385169063150b7a0290611e07903390899088908890600401612962565b6020604051808303816000875af1925050508015611e42575060408051601f3d908101601f19168201909252611e3f9181019061299f565b60015b611ea0573d808015611e70576040519150601f19603f3d011682016040523d82523d6000602084013e611e75565b606091505b508051600003611e98576040516368d2bf6b60e11b815260040160405180910390fd5b805181602001fd5b6001600160e01b031916630a85bd0160e11b1490505b949350505050565b611ec88383611f48565b6001600160a01b0383163b15611008576000548281035b611ef26000868380600101945086611dd2565b611f0f576040516368d2bf6b60e11b815260040160405180910390fd5b818110611edf578160005414610de457600080fd5b6000806000611f338585612046565b91509150611f408161208b565b509392505050565b6000805490829003611f6d5760405163b562e8dd60e01b815260040160405180910390fd5b6001600160a01b03831660008181526005602090815260408083208054680100000000000000018802019055848352600490915281206001851460e11b4260a01b178317905582840190839083907fddf252ad1be2c89b69c2b068fc378daa952ba7f163c4a11628f55a4df523b3ef8180a4600183015b81811461201c57808360007fddf252ad1be2c89b69c2b068fc378daa952ba7f163c4a11628f55a4df523b3ef600080a4600101611fe4565b508160000361203d57604051622e076360e81b815260040160405180910390fd5b60005550505050565b600080825160410361207c5760208301516040840151606085015160001a612070878285856121d5565b94509450505050612084565b506000905060025b9250929050565b600081600481111561209f5761209f6129bc565b036120a75750565b60018160048111156120bb576120bb6129bc565b036121085760405162461bcd60e51b815260206004820152601860248201527f45434453413a20696e76616c6964207369676e617475726500000000000000006044820152606401610a90565b600281600481111561211c5761211c6129bc565b036121695760405162461bcd60e51b815260206004820152601f60248201527f45434453413a20696e76616c6964207369676e6174757265206c656e677468006044820152606401610a90565b600381600481111561217d5761217d6129bc565b03611b285760405162461bcd60e51b815260206004820152602260248201527f45434453413a20696e76616c6964207369676e6174757265202773272076616c604482015261756560f01b6064820152608401610a90565b6000807f7fffffffffffffffffffffffffffffff5d576e7357a4501ddfe92f46681b20a083111561220c5750600090506003612290565b6040805160008082526020820180845289905260ff881692820192909252606081018690526080810185905260019060a0016020604051602081039080840390855afa158015612260573d6000803e3d6000fd5b5050604051601f1901519150506001600160a01b03811661228957600060019250925050612290565b9150600090505b94509492505050565b6001600160e01b031981168114611b2857600080fd5b6000602082840312156122c157600080fd5b8135611c5681612299565b6001600160a01b0381168114611b2857600080fd5b6000602082840312156122f357600080fd5b8135611c56816122cc565b6000815180845260005b8181101561232457602081850181015186830182015201612308565b506000602082860101526020601f19601f83011685010191505092915050565b602081526000611c5660208301846122fe565b60006020828403121561236957600080fd5b5035919050565b6000806040838503121561238357600080fd5b823561238e816122cc565b946020939093013593505050565b6000806000606084860312156123b157600080fd5b83356123bc816122cc565b925060208401356123cc816122cc565b929592945050506040919091013590565b600080604083850312156123f057600080fd5b50508035926020909101359150565b6000806020838503121561241257600080fd5b823567ffffffffffffffff8082111561242a57600080fd5b818501915085601f83011261243e57600080fd5b81358181111561244d57600080fd5b86602082850101111561245f57600080fd5b60209290920196919550909350505050565b634e487b7160e01b600052604160045260246000fd5b600082601f83011261249857600080fd5b813567ffffffffffffffff808211156124b3576124b3612471565b604051601f8301601f19908116603f011681019082821181831017156124db576124db612471565b816040528381528660208588010111156124f457600080fd5b836020870160208301376000602085830101528094505050505092915050565b60008060006060848603121561252957600080fd5b833567ffffffffffffffff81111561254057600080fd5b61254c86828701612487565b93505060208401356123cc816122cc565b6000806040838503121561257057600080fd5b823561257b816122cc565b91506020830135801515811461259057600080fd5b809150509250929050565b600080600080608085870312156125b157600080fd5b84356125bc816122cc565b935060208501356125cc816122cc565b925060408501359150606085013567ffffffffffffffff8111156125ef57600080fd5b6125fb87828801612487565b91505092959194509250565b602080825282518282018190526000919060409081850190868401855b8281101561266057815180516001600160a01b031685528601516bffffffffffffffffffffffff16868501529284019290850190600101612624565b5091979650505050505050565b6000806040838503121561268057600080fd5b823561268b816122cc565b91506020830135612590816122cc565b600181811c908216806126af57607f821691505b6020821081036119b957634e487b7160e01b600052602260045260246000fd5b6020808252601d908201527f2043616c6c6572206e6f742070617274206f662074686520706f72742e000000604082015260600190565b602080825260129082015271081b5d5cdd08189948191a5999995c995b9d60721b604082015260600190565b601f82111561100857600081815260208120601f850160051c810160208610156127595750805b601f850160051c820191505b81811015610c4e57828155600101612765565b67ffffffffffffffff83111561279057612790612471565b6127a48361279e835461269b565b83612732565b6000601f8411600181146127d857600085156127c05750838201355b600019600387901b1c1916600186901b178355610de4565b600083815260209020601f19861690835b8281101561280957868501358255602094850194600190920191016127e9565b50868210156128265760001960f88860031b161c19848701351681555b505060018560011b0183555050505050565b634e487b7160e01b600052601160045260246000fd5b8082018082111561087d5761087d612838565b60208082526010908201526f081b9bdd08195b9bdd59da081b19599d60821b604082015260600190565b808202811582820484141761087d5761087d612838565b600081546128af8161269b565b600182811680156128c757600181146128dc5761290b565b60ff198416875282151583028701945061290b565b8560005260208060002060005b858110156129025781548a8201529084019082016128e9565b50505082870194505b5050505092915050565b6000611eb661292483866128a2565b846128a2565b634e487b7160e01b600052603260045260246000fd5b60008261295d57634e487b7160e01b600052601260045260246000fd5b500490565b6001600160a01b0385811682528416602082015260408101839052608060608201819052600090612995908301846122fe565b9695505050505050565b6000602082840312156129b157600080fd5b8151611c5681612299565b634e487b7160e01b600052602160045260246000fdfea2646970667358221220821fb92120f0b7748e25c21a3e7f5b523013ab6daaa78a57e32cce28dc0fed2364736f6c63430008130033",
    "linkReferences": {}
  },
  "methodIdentifiers": {
    "TOKENS()": "1d831d5c",
    "_endDate()": "dbfa5863",
    "_name()": "d28d8852",
    "_payoutAddress()": "9c60c375",
    "_startDate()": "ac8daba0",
    "_tokenName()": "9f0c8125",
    "addToPort(address)": "1ae4eca7",
    "allowListCollect(address,uint256)": "55190461",
    "approve(address,uint256)": "095ea7b3",
    "balanceOf(address)": "70a08231",
    "collect(bytes,address,uint256)": "dae36b3f",
    "contractURI()": "e8a3d485",
    "endDate()": "c24a0f8b",
    "getApproved(uint256)": "081812fc",
    "getRaribleV2Royalties(uint256)": "cad96cca",
    "isApprovedForAll(address,address)": "e985e9c5",
    "isInPort(address)": "be9579e0",
    "mint(address,uint256)": "40c10f19",
    "name()": "06fdde03",
    "numberMinted(address)": "dc33e681",
    "openToPublic()": "1831ccf2",
    "owner()": "8da5cb5b",
    "ownerOf(uint256)": "6352211e",
    "paused()": "5c975abb",
    "purhase(bytes,address,uint256)": "5cb910b7",
    "removeFromPort(address)": "df8b6b95",
    "renounceOwnership()": "715018a6",
    "royaltyFeeBps()": "91192765",
    "royaltyInfo(uint256,uint256)": "2a55205a",
    "safeTransferFrom(address,address,uint256)": "42842e0e",
    "safeTransferFrom(address,address,uint256,bytes)": "b88d4fde",
    "setApprovalForAll(address,bool)": "a22cb465",
    "setBaseTokenURI(string)": "30176e13",
    "setContractURI(string)": "938e3d7b",
    "setPayoutAddress(address)": "33ea51a8",
    "setPrice(uint256)": "91b7f5ed",
    "setSignerAddress(address)": "046dc166",
    "setTokenHash(string)": "5cd8e56f",
    "startDate()": "0b97bc86",
    "supportsInterface(bytes4)": "01ffc9a7",
    "symbol()": "95d89b41",
    "toggleOpenToPublic()": "f903e3e4",
    "toggleSaleActive()": "3100a535",
    "tokenURI(uint256)": "c87b56dd",
    "totalSupply()": "18160ddd",
    "transferFrom(address,address,uint256)": "23b872dd",
    "transferOwnership(address)": "f2fde38b",
    "weiPrice()": "e29b9e97",
    "withdraw()": "3ccfd60b"
  },
  "id": 2
}